{
  "_format": "hh-sol-artifact-1",
  "contractName": "EthCollateralOApp",
  "sourceName": "contracts/eth/EthCollateralOApp.sol",
  "abi": [
    {
      "inputs": [
        {
          "internalType": "address",
          "name": "lzEndpoint",
          "type": "address"
        },
        {
          "internalType": "bytes32",
          "name": "defaultReserveId_",
          "type": "bytes32"
        }
      ],
      "stateMutability": "nonpayable",
      "type": "constructor"
    },
    {
      "inputs": [],
      "name": "InvalidDelegate",
      "type": "error"
    },
    {
      "inputs": [],
      "name": "InvalidEndpointCall",
      "type": "error"
    },
    {
      "inputs": [
        {
          "internalType": "uint16",
          "name": "optionType",
          "type": "uint16"
        }
      ],
      "name": "InvalidOptionType",
      "type": "error"
    },
    {
      "inputs": [],
      "name": "LzTokenUnavailable",
      "type": "error"
    },
    {
      "inputs": [
        {
          "internalType": "uint32",
          "name": "eid",
          "type": "uint32"
        }
      ],
      "name": "NoPeer",
      "type": "error"
    },
    {
      "inputs": [
        {
          "internalType": "uint256",
          "name": "msgValue",
          "type": "uint256"
        }
      ],
      "name": "NotEnoughNative",
      "type": "error"
    },
    {
      "inputs": [
        {
          "internalType": "address",
          "name": "addr",
          "type": "address"
        }
      ],
      "name": "OnlyEndpoint",
      "type": "error"
    },
    {
      "inputs": [
        {
          "internalType": "uint32",
          "name": "eid",
          "type": "uint32"
        },
        {
          "internalType": "bytes32",
          "name": "sender",
          "type": "bytes32"
        }
      ],
      "name": "OnlyPeer",
      "type": "error"
    },
    {
      "anonymous": false,
      "inputs": [
        {
          "indexed": true,
          "internalType": "bytes32",
          "name": "orderId",
          "type": "bytes32"
        },
        {
          "indexed": true,
          "internalType": "bytes32",
          "name": "reserveId",
          "type": "bytes32"
        },
        {
          "indexed": true,
          "internalType": "address",
          "name": "user",
          "type": "address"
        },
        {
          "indexed": false,
          "internalType": "uint256",
          "name": "addedAmountWei",
          "type": "uint256"
        },
        {
          "indexed": false,
          "internalType": "uint256",
          "name": "newTotalCollateralWei",
          "type": "uint256"
        }
      ],
      "name": "CollateralAdded",
      "type": "event"
    },
    {
      "anonymous": false,
      "inputs": [
        {
          "indexed": true,
          "internalType": "bytes32",
          "name": "orderId",
          "type": "bytes32"
        },
        {
          "indexed": true,
          "internalType": "bytes32",
          "name": "reserveId",
          "type": "bytes32"
        },
        {
          "indexed": false,
          "internalType": "uint256",
          "name": "unlockedAmount",
          "type": "uint256"
        },
        {
          "indexed": false,
          "internalType": "uint256",
          "name": "totalUnlocked",
          "type": "uint256"
        },
        {
          "indexed": false,
          "internalType": "bool",
          "name": "fullyRepaid",
          "type": "bool"
        }
      ],
      "name": "CollateralUnlocked",
      "type": "event"
    },
    {
      "anonymous": false,
      "inputs": [
        {
          "indexed": true,
          "internalType": "bytes32",
          "name": "orderId",
          "type": "bytes32"
        },
        {
          "indexed": true,
          "internalType": "bytes32",
          "name": "reserveId",
          "type": "bytes32"
        },
        {
          "indexed": false,
          "internalType": "uint256",
          "name": "amountWei",
          "type": "uint256"
        },
        {
          "indexed": true,
          "internalType": "address",
          "name": "payout",
          "type": "address"
        }
      ],
      "name": "Liquidated",
      "type": "event"
    },
    {
      "anonymous": false,
      "inputs": [
        {
          "indexed": true,
          "internalType": "bytes32",
          "name": "orderId",
          "type": "bytes32"
        },
        {
          "indexed": true,
          "internalType": "bytes32",
          "name": "reserveId",
          "type": "bytes32"
        }
      ],
      "name": "MarkRepaid",
      "type": "event"
    },
    {
      "anonymous": false,
      "inputs": [
        {
          "indexed": true,
          "internalType": "bytes32",
          "name": "orderId",
          "type": "bytes32"
        },
        {
          "indexed": true,
          "internalType": "bytes32",
          "name": "reserveId",
          "type": "bytes32"
        },
        {
          "indexed": true,
          "internalType": "address",
          "name": "user",
          "type": "address"
        }
      ],
      "name": "OrderCreated",
      "type": "event"
    },
    {
      "anonymous": false,
      "inputs": [
        {
          "indexed": true,
          "internalType": "bytes32",
          "name": "orderId",
          "type": "bytes32"
        },
        {
          "indexed": true,
          "internalType": "bytes32",
          "name": "reserveId",
          "type": "bytes32"
        },
        {
          "indexed": true,
          "internalType": "address",
          "name": "user",
          "type": "address"
        },
        {
          "indexed": false,
          "internalType": "uint256",
          "name": "amountWei",
          "type": "uint256"
        }
      ],
      "name": "OrderFunded",
      "type": "event"
    },
    {
      "anonymous": false,
      "inputs": [
        {
          "indexed": true,
          "internalType": "bytes32",
          "name": "orderId",
          "type": "bytes32"
        },
        {
          "indexed": true,
          "internalType": "bytes32",
          "name": "newReserveId",
          "type": "bytes32"
        }
      ],
      "name": "OrderReserveUpdated",
      "type": "event"
    },
    {
      "anonymous": false,
      "inputs": [
        {
          "indexed": true,
          "internalType": "address",
          "name": "previousOwner",
          "type": "address"
        },
        {
          "indexed": true,
          "internalType": "address",
          "name": "newOwner",
          "type": "address"
        }
      ],
      "name": "OwnershipTransferred",
      "type": "event"
    },
    {
      "anonymous": false,
      "inputs": [
        {
          "indexed": false,
          "internalType": "uint32",
          "name": "eid",
          "type": "uint32"
        },
        {
          "indexed": false,
          "internalType": "bytes32",
          "name": "peer",
          "type": "bytes32"
        }
      ],
      "name": "PeerSet",
      "type": "event"
    },
    {
      "anonymous": false,
      "inputs": [
        {
          "indexed": true,
          "internalType": "bytes32",
          "name": "orderId",
          "type": "bytes32"
        },
        {
          "indexed": true,
          "internalType": "bytes32",
          "name": "reserveId",
          "type": "bytes32"
        },
        {
          "indexed": true,
          "internalType": "address",
          "name": "user",
          "type": "address"
        },
        {
          "indexed": false,
          "internalType": "uint256",
          "name": "amountWei",
          "type": "uint256"
        }
      ],
      "name": "Withdrawn",
      "type": "event"
    },
    {
      "inputs": [
        {
          "internalType": "bytes32",
          "name": "orderId",
          "type": "bytes32"
        }
      ],
      "name": "addCollateral",
      "outputs": [],
      "stateMutability": "payable",
      "type": "function"
    },
    {
      "inputs": [
        {
          "internalType": "bytes32",
          "name": "orderId",
          "type": "bytes32"
        },
        {
          "internalType": "uint256",
          "name": "topUpAmountWei",
          "type": "uint256"
        }
      ],
      "name": "addCollateralWithNotify",
      "outputs": [],
      "stateMutability": "payable",
      "type": "function"
    },
    {
      "inputs": [
        {
          "internalType": "bytes32",
          "name": "orderId",
          "type": "bytes32"
        },
        {
          "internalType": "address",
          "name": "payout",
          "type": "address"
        },
        {
          "internalType": "uint256",
          "name": "seizeAmountWei",
          "type": "uint256"
        }
      ],
      "name": "adminLiquidate",
      "outputs": [],
      "stateMutability": "payable",
      "type": "function"
    },
    {
      "inputs": [
        {
          "internalType": "bytes32",
          "name": "orderId",
          "type": "bytes32"
        },
        {
          "internalType": "bytes32",
          "name": "reserveId",
          "type": "bytes32"
        },
        {
          "internalType": "bool",
          "name": "fullyRepaid",
          "type": "bool"
        },
        {
          "internalType": "uint256",
          "name": "collateralToUnlock",
          "type": "uint256"
        }
      ],
      "name": "adminMirrorRepayment",
      "outputs": [],
      "stateMutability": "nonpayable",
      "type": "function"
    },
    {
      "inputs": [
        {
          "components": [
            {
              "internalType": "uint32",
              "name": "srcEid",
              "type": "uint32"
            },
            {
              "internalType": "bytes32",
              "name": "sender",
              "type": "bytes32"
            },
            {
              "internalType": "uint64",
              "name": "nonce",
              "type": "uint64"
            }
          ],
          "internalType": "struct Origin",
          "name": "origin",
          "type": "tuple"
        }
      ],
      "name": "allowInitializePath",
      "outputs": [
        {
          "internalType": "bool",
          "name": "",
          "type": "bool"
        }
      ],
      "stateMutability": "view",
      "type": "function"
    },
    {
      "inputs": [],
      "name": "createOrderId",
      "outputs": [
        {
          "internalType": "bytes32",
          "name": "orderId",
          "type": "bytes32"
        }
      ],
      "stateMutability": "nonpayable",
      "type": "function"
    },
    {
      "inputs": [
        {
          "internalType": "bytes32",
          "name": "reserveId",
          "type": "bytes32"
        }
      ],
      "name": "createOrderIdWithReserve",
      "outputs": [
        {
          "internalType": "bytes32",
          "name": "orderId",
          "type": "bytes32"
        }
      ],
      "stateMutability": "nonpayable",
      "type": "function"
    },
    {
      "inputs": [
        {
          "internalType": "bytes",
          "name": "message",
          "type": "bytes"
        }
      ],
      "name": "decodeLiquidationPayload",
      "outputs": [
        {
          "internalType": "bytes32",
          "name": "orderId",
          "type": "bytes32"
        },
        {
          "internalType": "bytes32",
          "name": "reserveId",
          "type": "bytes32"
        },
        {
          "internalType": "address",
          "name": "payout",
          "type": "address"
        },
        {
          "internalType": "uint256",
          "name": "seizeWei",
          "type": "uint256"
        }
      ],
      "stateMutability": "pure",
      "type": "function"
    },
    {
      "inputs": [],
      "name": "defaultReserveId",
      "outputs": [
        {
          "internalType": "bytes32",
          "name": "",
          "type": "bytes32"
        }
      ],
      "stateMutability": "view",
      "type": "function"
    },
    {
      "inputs": [],
      "name": "endpoint",
      "outputs": [
        {
          "internalType": "contract ILayerZeroEndpointV2",
          "name": "",
          "type": "address"
        }
      ],
      "stateMutability": "view",
      "type": "function"
    },
    {
      "inputs": [
        {
          "internalType": "bytes32",
          "name": "orderId",
          "type": "bytes32"
        }
      ],
      "name": "fundOrder",
      "outputs": [],
      "stateMutability": "payable",
      "type": "function"
    },
    {
      "inputs": [
        {
          "internalType": "bytes32",
          "name": "orderId",
          "type": "bytes32"
        },
        {
          "internalType": "uint256",
          "name": "depositAmountWei",
          "type": "uint256"
        }
      ],
      "name": "fundOrderWithNotify",
      "outputs": [],
      "stateMutability": "payable",
      "type": "function"
    },
    {
      "inputs": [],
      "name": "hederaEid",
      "outputs": [
        {
          "internalType": "uint32",
          "name": "",
          "type": "uint32"
        }
      ],
      "stateMutability": "view",
      "type": "function"
    },
    {
      "inputs": [
        {
          "components": [
            {
              "internalType": "uint32",
              "name": "srcEid",
              "type": "uint32"
            },
            {
              "internalType": "bytes32",
              "name": "sender",
              "type": "bytes32"
            },
            {
              "internalType": "uint64",
              "name": "nonce",
              "type": "uint64"
            }
          ],
          "internalType": "struct Origin",
          "name": "",
          "type": "tuple"
        },
        {
          "internalType": "bytes",
          "name": "",
          "type": "bytes"
        },
        {
          "internalType": "address",
          "name": "_sender",
          "type": "address"
        }
      ],
      "name": "isComposeMsgSender",
      "outputs": [
        {
          "internalType": "bool",
          "name": "",
          "type": "bool"
        }
      ],
      "stateMutability": "view",
      "type": "function"
    },
    {
      "inputs": [
        {
          "components": [
            {
              "internalType": "uint32",
              "name": "srcEid",
              "type": "uint32"
            },
            {
              "internalType": "bytes32",
              "name": "sender",
              "type": "bytes32"
            },
            {
              "internalType": "uint64",
              "name": "nonce",
              "type": "uint64"
            }
          ],
          "internalType": "struct Origin",
          "name": "_origin",
          "type": "tuple"
        },
        {
          "internalType": "bytes32",
          "name": "_guid",
          "type": "bytes32"
        },
        {
          "internalType": "bytes",
          "name": "_message",
          "type": "bytes"
        },
        {
          "internalType": "address",
          "name": "_executor",
          "type": "address"
        },
        {
          "internalType": "bytes",
          "name": "_extraData",
          "type": "bytes"
        }
      ],
      "name": "lzReceive",
      "outputs": [],
      "stateMutability": "payable",
      "type": "function"
    },
    {
      "inputs": [
        {
          "internalType": "bytes32",
          "name": "",
          "type": "bytes32"
        }
      ],
      "name": "markRepaid",
      "outputs": [],
      "stateMutability": "pure",
      "type": "function"
    },
    {
      "inputs": [
        {
          "internalType": "uint32",
          "name": "",
          "type": "uint32"
        },
        {
          "internalType": "bytes32",
          "name": "",
          "type": "bytes32"
        }
      ],
      "name": "nextNonce",
      "outputs": [
        {
          "internalType": "uint64",
          "name": "nonce",
          "type": "uint64"
        }
      ],
      "stateMutability": "view",
      "type": "function"
    },
    {
      "inputs": [
        {
          "internalType": "address",
          "name": "",
          "type": "address"
        }
      ],
      "name": "nonces",
      "outputs": [
        {
          "internalType": "uint96",
          "name": "",
          "type": "uint96"
        }
      ],
      "stateMutability": "view",
      "type": "function"
    },
    {
      "inputs": [],
      "name": "oAppVersion",
      "outputs": [
        {
          "internalType": "uint64",
          "name": "senderVersion",
          "type": "uint64"
        },
        {
          "internalType": "uint64",
          "name": "receiverVersion",
          "type": "uint64"
        }
      ],
      "stateMutability": "pure",
      "type": "function"
    },
    {
      "inputs": [
        {
          "internalType": "bytes32",
          "name": "",
          "type": "bytes32"
        }
      ],
      "name": "orders",
      "outputs": [
        {
          "internalType": "address",
          "name": "owner",
          "type": "address"
        },
        {
          "internalType": "bytes32",
          "name": "reserveId",
          "type": "bytes32"
        },
        {
          "internalType": "uint256",
          "name": "amountWei",
          "type": "uint256"
        },
        {
          "internalType": "uint256",
          "name": "unlockedWei",
          "type": "uint256"
        },
        {
          "internalType": "bool",
          "name": "funded",
          "type": "bool"
        },
        {
          "internalType": "bool",
          "name": "repaid",
          "type": "bool"
        },
        {
          "internalType": "bool",
          "name": "liquidated",
          "type": "bool"
        }
      ],
      "stateMutability": "view",
      "type": "function"
    },
    {
      "inputs": [],
      "name": "owner",
      "outputs": [
        {
          "internalType": "address",
          "name": "",
          "type": "address"
        }
      ],
      "stateMutability": "view",
      "type": "function"
    },
    {
      "inputs": [
        {
          "internalType": "uint32",
          "name": "eid",
          "type": "uint32"
        }
      ],
      "name": "peers",
      "outputs": [
        {
          "internalType": "bytes32",
          "name": "peer",
          "type": "bytes32"
        }
      ],
      "stateMutability": "view",
      "type": "function"
    },
    {
      "inputs": [
        {
          "internalType": "bytes32",
          "name": "orderId",
          "type": "bytes32"
        },
        {
          "internalType": "uint256",
          "name": "topUpAmountWei",
          "type": "uint256"
        }
      ],
      "name": "quoteAddCollateralNativeFee",
      "outputs": [
        {
          "internalType": "uint256",
          "name": "nativeFee",
          "type": "uint256"
        }
      ],
      "stateMutability": "view",
      "type": "function"
    },
    {
      "inputs": [
        {
          "internalType": "bytes32",
          "name": "orderId",
          "type": "bytes32"
        },
        {
          "internalType": "address",
          "name": "payout",
          "type": "address"
        },
        {
          "internalType": "uint256",
          "name": "seizeAmountWei",
          "type": "uint256"
        }
      ],
      "name": "quoteLiquidationFee",
      "outputs": [
        {
          "internalType": "uint256",
          "name": "nativeFee",
          "type": "uint256"
        }
      ],
      "stateMutability": "view",
      "type": "function"
    },
    {
      "inputs": [
        {
          "internalType": "address",
          "name": "",
          "type": "address"
        },
        {
          "internalType": "uint256",
          "name": "depositAmountWei",
          "type": "uint256"
        }
      ],
      "name": "quoteOpenNativeFee",
      "outputs": [
        {
          "internalType": "uint256",
          "name": "nativeFee",
          "type": "uint256"
        }
      ],
      "stateMutability": "view",
      "type": "function"
    },
    {
      "inputs": [
        {
          "internalType": "bytes32",
          "name": "reserveId",
          "type": "bytes32"
        },
        {
          "internalType": "uint256",
          "name": "depositAmountWei",
          "type": "uint256"
        }
      ],
      "name": "quoteOpenNativeFeeWithReserve",
      "outputs": [
        {
          "internalType": "uint256",
          "name": "nativeFee",
          "type": "uint256"
        }
      ],
      "stateMutability": "view",
      "type": "function"
    },
    {
      "inputs": [],
      "name": "renounceOwnership",
      "outputs": [],
      "stateMutability": "nonpayable",
      "type": "function"
    },
    {
      "inputs": [
        {
          "internalType": "bytes32",
          "name": "newDefault",
          "type": "bytes32"
        }
      ],
      "name": "setDefaultReserve",
      "outputs": [],
      "stateMutability": "nonpayable",
      "type": "function"
    },
    {
      "inputs": [
        {
          "internalType": "address",
          "name": "_delegate",
          "type": "address"
        }
      ],
      "name": "setDelegate",
      "outputs": [],
      "stateMutability": "nonpayable",
      "type": "function"
    },
    {
      "inputs": [
        {
          "internalType": "uint32",
          "name": "_eid",
          "type": "uint32"
        }
      ],
      "name": "setHederaEid",
      "outputs": [],
      "stateMutability": "nonpayable",
      "type": "function"
    },
    {
      "inputs": [
        {
          "internalType": "bytes32",
          "name": "orderId",
          "type": "bytes32"
        },
        {
          "internalType": "bytes32",
          "name": "reserveId",
          "type": "bytes32"
        }
      ],
      "name": "setOrderReserve",
      "outputs": [],
      "stateMutability": "nonpayable",
      "type": "function"
    },
    {
      "inputs": [
        {
          "internalType": "uint32",
          "name": "_eid",
          "type": "uint32"
        },
        {
          "internalType": "bytes32",
          "name": "_peer",
          "type": "bytes32"
        }
      ],
      "name": "setPeer",
      "outputs": [],
      "stateMutability": "nonpayable",
      "type": "function"
    },
    {
      "inputs": [
        {
          "internalType": "address",
          "name": "newOwner",
          "type": "address"
        }
      ],
      "name": "transferOwnership",
      "outputs": [],
      "stateMutability": "nonpayable",
      "type": "function"
    },
    {
      "inputs": [
        {
          "internalType": "bytes32",
          "name": "orderId",
          "type": "bytes32"
        }
      ],
      "name": "withdraw",
      "outputs": [],
      "stateMutability": "nonpayable",
      "type": "function"
    }
  ],
  "bytecode": "0x60a0806040523461012e5760006040826127e080380380916100218285610133565b83398101031261012b5781516001600160a01b038116929083900361012957602001518154336001600160a01b03198216811784556040519294916001600160a01b03167f8be0079c531659141344cd1fd0a4f28419497f9722a3daafe3b4186f6b6457e08580a380608052331561011a57803b15610116578160248185809463ca5eb5e160e01b83523360048401525af1801561010b576100fb575b826001600255600555604051612673908161016d823960805181818161056501528181610b00015281816110df01528181611cd701526124240152f35b8161010591610133565b386100be565b6040513d84823e3d90fd5b8280fd5b632d618d8160e21b8352600483fd5b505b80fd5b600080fd5b601f909101601f19168101906001600160401b0382119082101761015657604052565b634e487b7160e01b600052604160045260246000fdfe6080604052600436101561001257600080fd5b60003560e01c8062ca74e6146102365780630b765637146102315780630dc658cf1461022c57806313137d65146102275780631338639a1461022257806317442b701461021d57806322f132eb146102185780632b2c41031461021357806331af09e01461020e5780633224633614610209578063332f1486146102045780633400288b146101ff578063452a15e4146101fa5780635e280f11146101f557806369ba3b8e146101f0578063715018a6146101eb5780637d25a05e146101e65780637ecebe00146101e157806382413eac146101dc5780638da5cb5b146101d75780638e19899e146101d25780639079fba7146101cd5780639c3f1e90146101c8578063a47782d4146101c3578063bb0b6a53146101be578063c1597f5c146101b9578063c1f48b28146101b4578063c2d402a1146101af578063ca5eb5e1146101aa578063d3b22d70146101a5578063dc79c388146101a0578063f23d40261461019b578063f2fde38b146101965763ff7bd03d1461019157600080fd5b61149c565b6113cd565b611317565b6112ed565b611162565b6110b5565b611094565b610fdf565b610fbe565b610f83565b610f45565b610eba565b610e1d565b610cfe565b610cd5565b610c76565b610c30565b610c09565b610bb0565b610b2f565b610aea565b6109da565b61096b565b61090f565b61080d565b6107da565b6107bb565b610639565b610617565b6105f9565b6104ff565b610305565b6102d1565b610274565b6001600160a01b0381160361024c57565b600080fd5b606090600319011261024c576004359060243561026d8161023b565b9060443590565b3461024c5760206102c86102ba61028a36610251565b9063ffffffff60069493945416936102a38515156114e3565b806000526003875260016040600020015490611a24565b6102c2611a60565b91611c73565b51604051908152f35b3461024c57604036600319011261024c576102ed60043561023b565b60206102fd602435600554611d3c565b604051908152f35b604036600319011261024c5761048e600435602435610322611d8c565b6104876006549161033a63ffffffff841615156114e3565b61040981610352866000526003602052604060002090565b80549096906103709033906001600160a01b039081165b1614611703565b600487019561038f61038a610386895460ff1690565b1590565b61173b565b61043961040e60018a01926103f484546103aa811515611de0565b6103b58815156115bf565b6103c1883410156119a5565b6040805160006020820152908101889052606081019190915233608082015260a08082019a909a5298895260c0896116e1565b876103fd611a60565b97889263ffffffff1690565b611c73565b9784600261041c8234611960565b9b61042a8d8d5111156119a5565b0155805460ff19166001179055565b54907f37687b07e365ddcaf58e01c9d799a10bcd14066dbb944c2b71a826c505c0169d604051806104703396829190602083019252565b0390a460065463ffffffff169033928551926123d2565b5190611960565b806104a0575b61049e6001600255565b005b60008080806104ba94335af16104b4611887565b506119ea565b38610494565b606090600319011261024c57600490565b9181601f8401121561024c5782359167ffffffffffffffff831161024c576020838186019501011161024c57565b60e036600319011261024c57610514366104c0565b60843567ffffffffffffffff811161024c576105349036906004016104d1565b9061054060a43561023b565b60c43567ffffffffffffffff811161024c576105609036906004016104d1565b5050337f00000000000000000000000000000000000000000000000000000000000000006001600160a01b0316036105e457823561059d8161095d565b60206105a882611e1c565b9401358094036105bc5761049e8383611f60565b63ffffffff816105cc869361095d565b63309afaf360e21b6000521660045260245260446000fd5b6391ac5e4f60e01b6000523360045260246000fd5b3461024c57600036600319011261024c576020600554604051908152f35b3461024c57600036600319011261024c57604080516001815260026020820152f35b604036600319011261024c5761048e600435602435610656611d8c565b6104876006549161066e63ffffffff841615156114e3565b6106798115156115bf565b61040981610691866000526003602052604060002090565b80546106a99033906001600160a01b03908116610369565b6106e86106e361038660048401546106c96106c48260ff1690565b61151b565b6106da60ff601083901c1615611630565b60081c60ff1690565b61166f565b6106f4823410156119a5565b60028101967f094cf6c364a22a38e8ad6f9a05781cfb33e28f11de1a5df50a8ade466c6ea395610470610783600161072d878d546115b2565b950180546040805160036020820152908101879052606081019190915233608082015260a081019990995260c0808a0187905289529961076e60e08a6116e1565b88610777611a60565b98899263ffffffff1690565b988461078f8734611960565b9b61079d8d8d5111156119a5565b55549360405191829133978360209093929193604081019481520152565b3461024c57600036600319011261024c5760206102fd600554336121fa565b3461024c57600036600319011261024c57602063ffffffff60065416604051908152f35b60443590811515820361024c57565b3461024c57608036600319011261024c5760243560043561082c6107fe565b6064359061083861231f565b8260005260036020526040600020916003600484019361085b60ff86541661151b565b61086b600282015484111561155a565b0180549082820180921161090a577ffc65762abf475f118f55c7e1ce207e2ee703c437a9d3e8efdb92d61e1450744a94846108cb9383556108d0575b50549260405193849384919260409194936060840195845260208401521515910152565b0390a3005b805461ff00191661010017905586867f2772adc54c88fe5a2778192e4d7a30b78e951a24ca7fa4c8bb0b11e5de75cdf2600080a3386108a7565b61159c565b3461024c57602036600319011261024c5760405162461bcd60e51b8152602060048201526015602482015274757365204c617965725a65726f206d65737361676560581b6044820152606490fd5b63ffffffff81160361024c57565b3461024c57604036600319011261024c577f238399d427b947898edb290f5ff0f9109849b1c3ba196a42e35f00c50a54b98b60406004356109ab8161095d565b63ffffffff602435916109bc61231f565b169081600052600160205280836000205582519182526020820152a1005b3461024c57604036600319011261024c57610ae6610ad56004356024356102ba610a0960065463ffffffff1690565b92610a1b63ffffffff851615156114e3565b610a268315156115bf565b610ac7610a3d826000526003602052604060002090565b805490946001600160a01b0390911690610a588215156115f4565b610a736106e361038660048901546106c96106c48260ff1690565b610a8681600260018901549801546115b2565b60408051600360208201529081019590955260608501969096526001600160a01b03909116608084015260a083015260c082019390935291829060e0820190565b03601f1981018352826116e1565b516040519081529081906020820190565b0390f35b3461024c57600036600319011261024c576040517f00000000000000000000000000000000000000000000000000000000000000006001600160a01b03168152602090f35b3461024c57604036600319011261024c57600435602435908060005260036020528160016040600020610b6b828060a01b038254163314611703565b610b7c60ff6004830154161561173b565b610b87831515611778565b01557fdfbb1b5dc6f45aaaed76e49be7c6de64410f2c2d10c9cf6017601443e5ae36c7600080a3005b3461024c57600036600319011261024c57610bc961231f565b600080546001600160a01b0319811682556001600160a01b03167f8be0079c531659141344cd1fd0a4f28419497f9722a3daafe3b4186f6b6457e08280a3005b3461024c57604036600319011261024c57610c2560043561095d565b602060405160008152f35b3461024c57602036600319011261024c57600435610c4d8161023b565b60018060a01b0316600052600460205260206001600160601b0360406000205416604051908152f35b3461024c5760a036600319011261024c57610c90366104c0565b5060643567ffffffffffffffff811161024c57610cb19036906004016104d1565b50506020608435610cc18161023b565b6040516001600160a01b0390911630148152f35b3461024c57600036600319011261024c576000546040516001600160a01b039091168152602090f35b3461024c57602036600319011261024c57600435610d1a611d8c565b610d2e816000526003602052604060002090565b60038101805482549093926001929091610d52906001600160a01b03163314611703565b60006004830191610d7083546106da610d6b8260ff1690565b6117b0565b8015610e14575b610d80906117e9565b610d8b871515611822565b5560028201908154861015610dfc575b5050610db7600080808088335af1610db1611887565b506118c7565b0154907f9f2ac44b71ed39dc94f50dac8e5681d17a934b26f193c387966cba3091d7a58160405180610def3396829190602083019252565b0390a461049e6001600255565b6000610e0d925560ff198154169055565b3880610d9b565b50861515610d77565b3461024c57602036600319011261024c5760043567ffffffffffffffff811161024c57610e5060a09136906004016104d1565b908092918101031261024c57610e6581611903565b50602081013590610ae66040820135926080606084013593610e868561023b565b6040805193845260208401969096526001600160a01b03909416948201949094529290910135606083015281906080820190565b3461024c57602036600319011261024c576004356000908152600360208181526040928390208054600182015460028301549483015460049093015486516001600160a01b0390931683529382015293840192909252606083019190915260ff80821615156080840152600882901c8116151560a084015260109190911c16151560c082015260e090f35b3461024c57602036600319011261024c5763ffffffff600435610f678161095d565b610f6f61231f565b1663ffffffff196006541617600655600080f35b3461024c57602036600319011261024c5763ffffffff600435610fa58161095d565b1660005260016020526020604060002054604051908152f35b3461024c57604036600319011261024c5760206102fd602435600435611d3c565b602036600319011261024c57600435610ff6611d8c565b6110013415156115bf565b60008181526003602052604090208054611025906001600160a01b03163314611703565b61105e6004820161103a60ff8254161561173b565b600183019261104b84541515611de0565b600234910155600160ff19825416179055565b546040513481523392907f37687b07e365ddcaf58e01c9d799a10bcd14066dbb944c2b71a826c505c0169d908060208101610def565b3461024c57602036600319011261024c576004356110b061231f565b600555005b3461024c576000602036600319011261115f57806004356110d58161023b565b6110dd61231f565b7f00000000000000000000000000000000000000000000000000000000000000006001600160a01b0316803b1561115b5760405163ca5eb5e160e01b81526001600160a01b0390921660048301529091908290602490829084905af180156111565782906111485780f35b611151916116e1565b388180f35b611911565b5050fd5b80fd5b61048e61116e36610251565b90611177611d8c565b61117f61231f565b61119e63ffffffff61119660065463ffffffff1690565b1615156114e3565b6111b2836000526003602052604060002090565b600481016111d281546111c58160ff1690565b90816112d8575b5061191d565b60028201805494806112d25750845b8086116112ca575b91611216916111fb8760019695611960565b90819055815462ff00001916901560101b62ff000016179055565b611230600080808088885af161122a611887565b5061196d565b01927f312cf49f4daa4c250757f733d7a5546412e2c0bce86a3541d6891524318120ec6112c06112638585885486611a24565b956112a361126f611a60565b9761127f60065463ffffffff1690565b9061128b8a8284611c73565b996112998b513410156119a5565b8a519133936123d2565b546040519586526001600160a01b03909416949081906020820190565b0390a45134611960565b9450846111e9565b946111e1565b6112e7915060081c60ff161590565b386111cc565b3461024c57602036600319011261024c5760206102fd600435611311811515611778565b336121fa565b602036600319011261024c5760043561132e611d8c565b6113393415156115bf565b80600052600360205260406000209061135c3360018060a01b0384541614611703565b6113776106e361038660048501546106c96106c48260ff1690565b600160028301926113893485546115b2565b8094550154907f094cf6c364a22a38e8ad6f9a05781cfb33e28f11de1a5df50a8ade466c6ea39560405180610def3396348360209093929193604081019481520152565b3461024c57602036600319011261024c576004356113ea8161023b565b6113f261231f565b6001600160a01b0381161561144857600080546001600160a01b039283166001600160a01b03198216811783559216907f8be0079c531659141344cd1fd0a4f28419497f9722a3daafe3b4186f6b6457e09080a3005b60405162461bcd60e51b815260206004820152602660248201527f4f776e61626c653a206e6577206f776e657220697320746865207a65726f206160448201526564647265737360d01b6064820152608490fd5b3461024c57606036600319011261024c5760206114b8366104c0565b63ffffffff81356114c88161095d565b16600052600182528160406000205491013560405191148152f35b156114ea57565b60405162461bcd60e51b8152602060048201526009602482015268195a59081d5b9cd95d60ba1b6044820152606490fd5b1561152257565b60405162461bcd60e51b815260206004820152601060248201526f1bdc99195c881b9bdd08199d5b99195960821b6044820152606490fd5b1561156157565b60405162461bcd60e51b81526020600482015260136024820152721d5b9b1bd8dac80f8818dbdb1b185d195c985b606a1b6044820152606490fd5b634e487b7160e01b600052601160045260246000fd5b9190820180921161090a57565b156115c657565b60405162461bcd60e51b81526020600482015260066024820152650dcde408aa8960d31b6044820152606490fd5b156115fb57565b60405162461bcd60e51b815260206004820152600d60248201526c6f72646572206d697373696e6760981b6044820152606490fd5b1561163757565b60405162461bcd60e51b815260206004820152601060248201526f1bdc99195c881b1a5c5d5a59185d195960821b6044820152606490fd5b1561167657565b60405162461bcd60e51b815260206004820152600c60248201526b1bdc99195c881c995c185a5960a21b6044820152606490fd5b634e487b7160e01b600052604160045260246000fd5b6040810190811067ffffffffffffffff8211176116dc57604052565b6116aa565b90601f8019910116810190811067ffffffffffffffff8211176116dc57604052565b1561170a57565b60405162461bcd60e51b81526020600482015260096024820152683737ba1037bbb732b960b91b6044820152606490fd5b1561174257565b60405162461bcd60e51b815260206004820152600e60248201526d185b1c9958591e48199d5b99195960921b6044820152606490fd5b1561177f57565b60405162461bcd60e51b81526020600482015260096024820152680726573657276653d360bc1b6044820152606490fd5b156117b757565b60405162461bcd60e51b815260206004820152600a6024820152691b9bdd08199d5b99195960b21b6044820152606490fd5b156117f057565b60405162461bcd60e51b815260206004820152600a6024820152691b9bdd081c995c185a5960b21b6044820152606490fd5b1561182957565b60405162461bcd60e51b81526020600482015260166024820152751b9bc81d5b9b1bd8dad9590818dbdb1b185d195c985b60521b6044820152606490fd5b6040519061187660a0836116e1565b565b6040519061187660e0836116e1565b3d156118c2573d9067ffffffffffffffff82116116dc57604051916118b6601f8201601f1916602001846116e1565b82523d6000602084013e565b606090565b156118ce57565b60405162461bcd60e51b815260206004820152600d60248201526c195d1a081cd95b990819985a5b609a1b6044820152606490fd5b359060ff8216820361024c57565b6040513d6000823e3d90fd5b1561192457565b60405162461bcd60e51b81526020600482015260146024820152736e6f7468696e6720746f206c697175696461746560601b6044820152606490fd5b9190820391821161090a57565b1561197457565b60405162461bcd60e51b81526020600482015260096024820152681cd95b990819985a5b60ba1b6044820152606490fd5b156119ac57565b60405162461bcd60e51b8152602060048201526016602482015275696e73756666696369656e74206d73672e76616c756560501b6044820152606490fd5b156119f157565b60405162461bcd60e51b815260206004820152600b60248201526a1c99599d5b990819985a5b60aa1b6044820152606490fd5b92919060405193600260208601526040850152606084015260018060a01b0316608083015260a082015260a08152611a5d60c0826116e1565b90565b604051600360f01b602082015260028152611a7c6022826116e1565b600361ffff611a8a8361257b565b1603611b4757604051610c3560861b60208201526010815290611aae6030836116e1565b600361ffff611abc8361257b565b1603611b475781519061ffff8211611af357610ac7611ae161ffff611a5d94166125c7565b936001604051958694602086016125db565b60405162461bcd60e51b815260206004820152602660248201527f53616665436173743a2076616c756520646f65736e27742066697420696e203160448201526536206269747360d01b6064820152608490fd5b611b5361ffff9161257b565b633a51740d60e01b6000521660045260246000fd5b60405190611b75826116c0565b60006020838281520152565b919082604091031261024c57604051611b99816116c0565b6020808294805184520151910152565b9060408282031261024c57611a5d91611b81565b60005b838110611bd05750506000910152565b8181015183820152602001611bc0565b90602091611bf981518092818552858086019101611bbd565b601f01601f1916010190565b906020909392936040835263ffffffff81511660408401528181015160608401526080611c59611c43604084015160a08488015260e0870190611be0565b6060840151868203603f190160a0880152611be0565b910151151560c08401526001600160a01b03909416910152565b611cd392604092611c82611b68565b50611c8c83611e1c565b611ca3611c97611867565b63ffffffff9095168552565b602084015283830152606082015260006080820152815180938192631bb8518b60e31b8352309060048401611c05565b03817f00000000000000000000000000000000000000000000000000000000000000006001600160a01b03165afa90811561115657600091611d13575090565b611a5d915060403d604011611d35575b611d2d81836116e1565b810190611ba9565b503d611d23565b90611d889163ffffffff6006541691611d568315156114e3565b60405191600060208401526000604084015260608301526000608083015260a082015260a081526102ba60c0826116e1565b5190565b6002805414611d9b5760028055565b60405162461bcd60e51b815260206004820152601f60248201527f5265656e7472616e637947756172643a207265656e7472616e742063616c6c006044820152606490fd5b15611de757565b60405162461bcd60e51b815260206004820152600d60248201526c1c995cd95c9d99481d5b9cd95d609a1b6044820152606490fd5b63ffffffff16806000526001602052604060002054908115611e3c575090565b63f6ff4fb760e01b60005260045260246000fd5b15611e5757565b60405162461bcd60e51b8152602060048201526016602482015275115b5c1d1e481b595cdcd859d9481c9958d95a5d995960521b6044820152606490fd5b9015611e9e5790565b634e487b7160e01b600052603260045260246000fd5b919082608091031261024c5781519160208101519160606040830151611ed98161023b565b92015190565b90918060409360208452816020850152848401376000828201840152601f01601f1916010190565b9081606091031261024c57611f1b81611903565b916040602083013592013590565b908160a091031261024c57611f3d81611903565b916020820135916040810135916060820135801515810361024c57916080013590565b90611f6c811515611e50565b60ff611f92611f8c611f7e8486611e95565b356001600160f81b03191690565b60f81c90565b1660018103612049575081611fca917ffc65762abf475f118f55c7e1ce207e2ee703c437a9d3e8efdb92d61e1450744a930190611f29565b909194929350612044611fe7856000526003602052604060002090565b60036004820191611ffc6106c4845460ff1690565b61200c600282015486111561155a565b01908461201a8584546115b2565b83556108d05750549260405193849384919260409194936060840195845260208401521515910152565b0390a3565b600214612054575050565b604051639079fba760e01b815260808180612073858760048401611edf565b0381305afa90600080836000936000956120f6575b506120e75750505050816120a191611876930190611f07565b9091506120c86120bb836000526003602052604060002090565b546001600160a01b031690565b9060026120df846000526003602052604060002090565b015492612486565b90919293506118769450612486565b925093505061211d915060803d608011612127575b61211581836116e1565b810190611eb4565b9390929038612088565b503d61210b565b6001600160601b03166001600160601b03811461090a5760010190565b815181546001600160a01b0319166001600160a01b03919091161781556020820151600182015560408201516002820155606082015160038201556080820151611876926004909201916121e29160c091906121b5901515859060ff801983541691151516179055565b6121db6121c560a0830151151590565b855461ff00191690151560081b61ff0016178555565b0151151590565b815462ff0000191690151560101b62ff000016179055565b919060018060a01b0383166000526004602052604060002061224f61222e61222983546001600160601b031690565b61212e565b82546bffffffffffffffffffffffff19166001600160601b03821617909255565b604080516001600160a01b038616602082019081526001600160601b0390931691810191909152466060820152608081018390526122908160a08101610ac7565b519020926122ed61229f611878565b6001600160a01b0383168152836020820152600060408201526000606082015260006080820152600060a0820152600060c08201526122e8866000526003602052604060002090565b61214b565b6001600160a01b031690837fd8fca2697bd84b8351329d1a59090f8366ff99c417e8a51d06babe2cb2f1d12d600080a4565b6000546001600160a01b0316330361233357565b606460405162461bcd60e51b815260206004820152602060248201527f4f776e61626c653a2063616c6c6572206973206e6f7420746865206f776e65726044820152fd5b60808183031261024c57604051916060830183811067ffffffffffffffff8211176116dc5760405281518352602082015167ffffffffffffffff8116810361024c5760208401526123ca91604001611b81565b604082015290565b6124209492608094926123e483611e1c565b6123ef611c97611867565b6020840152604083015260608201526000848201526040518095819482936302637a4560e41b845260048401611c05565b03917f00000000000000000000000000000000000000000000000000000000000000006001600160a01b03165af180156111565761245b5750565b61247c9060803d60801161247f575b61247481836116e1565b810190612377565b50565b503d61246a565b9091816000526003602052604060002083600182015403612543577f312cf49f4daa4c250757f733d7a5546412e2c0bce86a3541d6891524318120ec9181600261251b930180549788811160001461253857506124e38880611960565b81555415612520575b5061250160008080808a865af1610db1611887565b6040519586526001600160a01b0316949081906020820190565b0390a4565b600401805462ff0000191662010000179055386124ec565b6124e3908099611960565b60405162461bcd60e51b815260206004820152601060248201526f0e4cae6cae4ecca40dad2e6dac2e8c6d60831b6044820152606490fd5b600281511061258b576002015190565b60405162461bcd60e51b8152602060048201526014602482015273746f55696e7431365f6f75744f66426f756e647360601b6044820152606490fd5b61ffff60019116019061ffff821161090a57565b6020906125f2600496959382815194859201611bbd565b600160f81b910190815260f09290921b6001600160f01b031916600183015260f81b6001600160f81b031916600382015281519161263890839085840190602001611bbd565b01019056fea2646970667358221220bfd9e892801ed39497014fb9bf3869f3ea29b28fa7d21baec1efbf2112fe468b64736f6c634300081c0033",
  "linkReferences": {},
  "deployedLinkReferences": {}
}