{
  "_format": "hh-sol-artifact-1",
  "contractName": "HederaCreditOApp",
  "sourceName": "contracts/hedera/HederaCreditOApp.sol",
  "abi": [
    {
      "inputs": [
        {
          "internalType": "address",
          "name": "lzEndpoint",
          "type": "address"
        },
        {
          "internalType": "address",
          "name": "owner_",
          "type": "address"
        },
        {
          "internalType": "address",
          "name": "registry_",
          "type": "address"
        },
        {
          "internalType": "address",
          "name": "pythContract",
          "type": "address"
        },
        {
          "internalType": "bytes32",
          "name": "defaultReserveId_",
          "type": "bytes32"
        }
      ],
      "stateMutability": "nonpayable",
      "type": "constructor"
    },
    {
      "inputs": [],
      "name": "BadAmount",
      "type": "error"
    },
    {
      "inputs": [
        {
          "internalType": "bytes32",
          "name": "orderId",
          "type": "bytes32"
        }
      ],
      "name": "BadOrder",
      "type": "error"
    },
    {
      "inputs": [],
      "name": "ControllerMismatch",
      "type": "error"
    },
    {
      "inputs": [],
      "name": "DebtOverflow",
      "type": "error"
    },
    {
      "inputs": [],
      "name": "InvalidDelegate",
      "type": "error"
    },
    {
      "inputs": [],
      "name": "InvalidEndpointCall",
      "type": "error"
    },
    {
      "inputs": [
        {
          "internalType": "uint16",
          "name": "optionType",
          "type": "uint16"
        }
      ],
      "name": "InvalidOptionType",
      "type": "error"
    },
    {
      "inputs": [
        {
          "internalType": "uint256",
          "name": "required",
          "type": "uint256"
        },
        {
          "internalType": "uint256",
          "name": "provided",
          "type": "uint256"
        }
      ],
      "name": "LzFeeTooLow",
      "type": "error"
    },
    {
      "inputs": [],
      "name": "LzTokenUnavailable",
      "type": "error"
    },
    {
      "inputs": [
        {
          "internalType": "uint32",
          "name": "eid",
          "type": "uint32"
        }
      ],
      "name": "NoPeer",
      "type": "error"
    },
    {
      "inputs": [
        {
          "internalType": "uint256",
          "name": "msgValue",
          "type": "uint256"
        }
      ],
      "name": "NotEnoughNative",
      "type": "error"
    },
    {
      "inputs": [],
      "name": "NothingToCollect",
      "type": "error"
    },
    {
      "inputs": [
        {
          "internalType": "address",
          "name": "addr",
          "type": "address"
        }
      ],
      "name": "OnlyEndpoint",
      "type": "error"
    },
    {
      "inputs": [
        {
          "internalType": "uint32",
          "name": "eid",
          "type": "uint32"
        },
        {
          "internalType": "bytes32",
          "name": "sender",
          "type": "bytes32"
        }
      ],
      "name": "OnlyPeer",
      "type": "error"
    },
    {
      "inputs": [
        {
          "internalType": "uint256",
          "name": "required",
          "type": "uint256"
        },
        {
          "internalType": "uint256",
          "name": "provided",
          "type": "uint256"
        }
      ],
      "name": "OracleFeeTooLow",
      "type": "error"
    },
    {
      "inputs": [
        {
          "internalType": "bytes",
          "name": "data",
          "type": "bytes"
        },
        {
          "internalType": "uint32",
          "name": "maxAgeSecs",
          "type": "uint32"
        }
      ],
      "name": "OraclePriceQueryFailed",
      "type": "error"
    },
    {
      "inputs": [
        {
          "internalType": "bytes",
          "name": "data",
          "type": "bytes"
        },
        {
          "internalType": "uint256",
          "name": "required",
          "type": "uint256"
        },
        {
          "internalType": "uint256",
          "name": "provided",
          "type": "uint256"
        },
        {
          "internalType": "uint256",
          "name": "items",
          "type": "uint256"
        }
      ],
      "name": "OracleUpdateFailed",
      "type": "error"
    },
    {
      "inputs": [],
      "name": "RateOverflow",
      "type": "error"
    },
    {
      "inputs": [
        {
          "internalType": "bytes32",
          "name": "reserveId",
          "type": "bytes32"
        }
      ],
      "name": "ReserveInactive",
      "type": "error"
    },
    {
      "inputs": [
        {
          "internalType": "bytes32",
          "name": "expected",
          "type": "bytes32"
        },
        {
          "internalType": "bytes32",
          "name": "provided",
          "type": "bytes32"
        }
      ],
      "name": "ReserveMismatch",
      "type": "error"
    },
    {
      "anonymous": false,
      "inputs": [
        {
          "indexed": true,
          "internalType": "bytes32",
          "name": "orderId",
          "type": "bytes32"
        },
        {
          "indexed": false,
          "internalType": "string",
          "name": "tag",
          "type": "string"
        },
        {
          "indexed": false,
          "internalType": "uint256",
          "name": "val1",
          "type": "uint256"
        },
        {
          "indexed": false,
          "internalType": "uint256",
          "name": "val2",
          "type": "uint256"
        },
        {
          "indexed": false,
          "internalType": "address",
          "name": "addr",
          "type": "address"
        }
      ],
      "name": "BorrowDebug",
      "type": "event"
    },
    {
      "anonymous": false,
      "inputs": [
        {
          "indexed": true,
          "internalType": "bytes32",
          "name": "orderId",
          "type": "bytes32"
        },
        {
          "indexed": true,
          "internalType": "bytes32",
          "name": "reserveId",
          "type": "bytes32"
        },
        {
          "indexed": true,
          "internalType": "address",
          "name": "borrower",
          "type": "address"
        },
        {
          "indexed": false,
          "internalType": "uint64",
          "name": "grossAmount",
          "type": "uint64"
        },
        {
          "indexed": false,
          "internalType": "uint64",
          "name": "netAmount",
          "type": "uint64"
        },
        {
          "indexed": false,
          "internalType": "uint64",
          "name": "originationFee",
          "type": "uint64"
        },
        {
          "indexed": false,
          "internalType": "uint32",
          "name": "borrowRateBps",
          "type": "uint32"
        }
      ],
      "name": "Borrowed",
      "type": "event"
    },
    {
      "anonymous": false,
      "inputs": [
        {
          "indexed": true,
          "internalType": "bytes32",
          "name": "newReserveId",
          "type": "bytes32"
        }
      ],
      "name": "DefaultReserveUpdated",
      "type": "event"
    },
    {
      "anonymous": false,
      "inputs": [
        {
          "indexed": true,
          "internalType": "bytes32",
          "name": "orderId",
          "type": "bytes32"
        },
        {
          "indexed": true,
          "internalType": "bytes32",
          "name": "reserveId",
          "type": "bytes32"
        },
        {
          "indexed": true,
          "internalType": "address",
          "name": "borrower",
          "type": "address"
        },
        {
          "indexed": false,
          "internalType": "uint256",
          "name": "addedCollateralWei",
          "type": "uint256"
        },
        {
          "indexed": false,
          "internalType": "uint256",
          "name": "newTotalCollateralWei",
          "type": "uint256"
        }
      ],
      "name": "HederaCollateralIncreased",
      "type": "event"
    },
    {
      "anonymous": false,
      "inputs": [
        {
          "indexed": true,
          "internalType": "bytes32",
          "name": "orderId",
          "type": "bytes32"
        },
        {
          "indexed": true,
          "internalType": "bytes32",
          "name": "reserveId",
          "type": "bytes32"
        },
        {
          "indexed": true,
          "internalType": "address",
          "name": "borrower",
          "type": "address"
        },
        {
          "indexed": false,
          "internalType": "uint256",
          "name": "collateralWei",
          "type": "uint256"
        }
      ],
      "name": "HederaOrderOpened",
      "type": "event"
    },
    {
      "anonymous": false,
      "inputs": [
        {
          "indexed": true,
          "internalType": "bytes32",
          "name": "reserveId",
          "type": "bytes32"
        },
        {
          "indexed": false,
          "internalType": "uint256",
          "name": "newTotalDebtRay",
          "type": "uint256"
        },
        {
          "indexed": false,
          "internalType": "uint256",
          "name": "protocolFeesRay",
          "type": "uint256"
        },
        {
          "indexed": false,
          "internalType": "uint32",
          "name": "borrowRateBps",
          "type": "uint32"
        }
      ],
      "name": "InterestAccrued",
      "type": "event"
    },
    {
      "anonymous": false,
      "inputs": [
        {
          "indexed": true,
          "internalType": "bytes32",
          "name": "reserveId",
          "type": "bytes32"
        },
        {
          "indexed": false,
          "internalType": "uint256",
          "name": "price1e18",
          "type": "uint256"
        }
      ],
      "name": "OraclePriceChecked",
      "type": "event"
    },
    {
      "anonymous": false,
      "inputs": [
        {
          "indexed": true,
          "internalType": "bytes32",
          "name": "orderId",
          "type": "bytes32"
        },
        {
          "indexed": true,
          "internalType": "bytes32",
          "name": "reserveId",
          "type": "bytes32"
        },
        {
          "indexed": true,
          "internalType": "address",
          "name": "borrower",
          "type": "address"
        },
        {
          "indexed": false,
          "internalType": "uint256",
          "name": "collateralWei",
          "type": "uint256"
        }
      ],
      "name": "OrderManuallyMirrored",
      "type": "event"
    },
    {
      "anonymous": false,
      "inputs": [
        {
          "indexed": true,
          "internalType": "address",
          "name": "previousOwner",
          "type": "address"
        },
        {
          "indexed": true,
          "internalType": "address",
          "name": "newOwner",
          "type": "address"
        }
      ],
      "name": "OwnershipTransferred",
      "type": "event"
    },
    {
      "anonymous": false,
      "inputs": [
        {
          "indexed": false,
          "internalType": "uint32",
          "name": "eid",
          "type": "uint32"
        },
        {
          "indexed": false,
          "internalType": "bytes32",
          "name": "peer",
          "type": "bytes32"
        }
      ],
      "name": "PeerSet",
      "type": "event"
    },
    {
      "anonymous": false,
      "inputs": [
        {
          "indexed": true,
          "internalType": "bytes32",
          "name": "orderId",
          "type": "bytes32"
        },
        {
          "indexed": true,
          "internalType": "bytes32",
          "name": "reserveId",
          "type": "bytes32"
        },
        {
          "indexed": true,
          "internalType": "address",
          "name": "liquidator",
          "type": "address"
        },
        {
          "indexed": false,
          "internalType": "uint64",
          "name": "repaidAmountUsd",
          "type": "uint64"
        },
        {
          "indexed": false,
          "internalType": "uint256",
          "name": "seizedCollateralWei",
          "type": "uint256"
        },
        {
          "indexed": false,
          "internalType": "address",
          "name": "ethRecipient",
          "type": "address"
        },
        {
          "indexed": false,
          "internalType": "bool",
          "name": "fullyRepaid",
          "type": "bool"
        }
      ],
      "name": "PositionLiquidated",
      "type": "event"
    },
    {
      "anonymous": false,
      "inputs": [
        {
          "indexed": true,
          "internalType": "bytes32",
          "name": "reserveId",
          "type": "bytes32"
        },
        {
          "indexed": true,
          "internalType": "address",
          "name": "recipient",
          "type": "address"
        },
        {
          "indexed": false,
          "internalType": "uint64",
          "name": "amount",
          "type": "uint64"
        }
      ],
      "name": "ProtocolFeesCollected",
      "type": "event"
    },
    {
      "anonymous": false,
      "inputs": [
        {
          "indexed": true,
          "internalType": "bytes32",
          "name": "orderId",
          "type": "bytes32"
        },
        {
          "indexed": true,
          "internalType": "bytes32",
          "name": "reserveId",
          "type": "bytes32"
        },
        {
          "indexed": false,
          "internalType": "uint64",
          "name": "repayBurnAmount",
          "type": "uint64"
        },
        {
          "indexed": false,
          "internalType": "uint256",
          "name": "remainingDebtRay",
          "type": "uint256"
        },
        {
          "indexed": false,
          "internalType": "bool",
          "name": "fullyRepaid",
          "type": "bool"
        }
      ],
      "name": "RepayApplied",
      "type": "event"
    },
    {
      "anonymous": false,
      "inputs": [
        {
          "indexed": true,
          "internalType": "address",
          "name": "newRegistry",
          "type": "address"
        }
      ],
      "name": "ReserveRegistryUpdated",
      "type": "event"
    },
    {
      "inputs": [
        {
          "internalType": "bytes32",
          "name": "orderId",
          "type": "bytes32"
        },
        {
          "internalType": "uint256",
          "name": "addedWei",
          "type": "uint256"
        }
      ],
      "name": "adminIncreaseCollateral",
      "outputs": [],
      "stateMutability": "nonpayable",
      "type": "function"
    },
    {
      "inputs": [
        {
          "internalType": "bytes32",
          "name": "orderId",
          "type": "bytes32"
        },
        {
          "internalType": "bytes32",
          "name": "reserveId",
          "type": "bytes32"
        },
        {
          "internalType": "address",
          "name": "borrower",
          "type": "address"
        },
        {
          "internalType": "address",
          "name": "borrowerCanonical",
          "type": "address"
        },
        {
          "internalType": "uint256",
          "name": "collateralWei",
          "type": "uint256"
        }
      ],
      "name": "adminMirrorOrder",
      "outputs": [],
      "stateMutability": "nonpayable",
      "type": "function"
    },
    {
      "inputs": [
        {
          "components": [
            {
              "internalType": "uint32",
              "name": "srcEid",
              "type": "uint32"
            },
            {
              "internalType": "bytes32",
              "name": "sender",
              "type": "bytes32"
            },
            {
              "internalType": "uint64",
              "name": "nonce",
              "type": "uint64"
            }
          ],
          "internalType": "struct Origin",
          "name": "origin",
          "type": "tuple"
        }
      ],
      "name": "allowInitializePath",
      "outputs": [
        {
          "internalType": "bool",
          "name": "",
          "type": "bool"
        }
      ],
      "stateMutability": "view",
      "type": "function"
    },
    {
      "inputs": [
        {
          "internalType": "bytes32",
          "name": "orderId",
          "type": "bytes32"
        },
        {
          "internalType": "uint64",
          "name": "usdAmount",
          "type": "uint64"
        },
        {
          "internalType": "bytes[]",
          "name": "priceUpdateData",
          "type": "bytes[]"
        },
        {
          "internalType": "uint32",
          "name": "maxAgeSecs",
          "type": "uint32"
        }
      ],
      "name": "borrow",
      "outputs": [
        {
          "internalType": "uint64",
          "name": "netAmount",
          "type": "uint64"
        }
      ],
      "stateMutability": "payable",
      "type": "function"
    },
    {
      "inputs": [
        {
          "internalType": "bytes32",
          "name": "reserveId",
          "type": "bytes32"
        },
        {
          "internalType": "bytes32",
          "name": "orderId",
          "type": "bytes32"
        },
        {
          "internalType": "uint64",
          "name": "usdAmount",
          "type": "uint64"
        },
        {
          "internalType": "bytes[]",
          "name": "priceUpdateData",
          "type": "bytes[]"
        },
        {
          "internalType": "uint32",
          "name": "maxAgeSecs",
          "type": "uint32"
        }
      ],
      "name": "borrowWithReserve",
      "outputs": [
        {
          "internalType": "uint64",
          "name": "netAmount",
          "type": "uint64"
        }
      ],
      "stateMutability": "payable",
      "type": "function"
    },
    {
      "inputs": [],
      "name": "controller",
      "outputs": [
        {
          "internalType": "address",
          "name": "",
          "type": "address"
        }
      ],
      "stateMutability": "view",
      "type": "function"
    },
    {
      "inputs": [],
      "name": "debugStopAfterMint",
      "outputs": [
        {
          "internalType": "bool",
          "name": "",
          "type": "bool"
        }
      ],
      "stateMutability": "view",
      "type": "function"
    },
    {
      "inputs": [],
      "name": "defaultReserveId",
      "outputs": [
        {
          "internalType": "bytes32",
          "name": "",
          "type": "bytes32"
        }
      ],
      "stateMutability": "view",
      "type": "function"
    },
    {
      "inputs": [],
      "name": "endpoint",
      "outputs": [
        {
          "internalType": "contract ILayerZeroEndpointV2",
          "name": "",
          "type": "address"
        }
      ],
      "stateMutability": "view",
      "type": "function"
    },
    {
      "inputs": [],
      "name": "ethEid",
      "outputs": [
        {
          "internalType": "uint32",
          "name": "",
          "type": "uint32"
        }
      ],
      "stateMutability": "view",
      "type": "function"
    },
    {
      "inputs": [
        {
          "internalType": "bytes32",
          "name": "orderId",
          "type": "bytes32"
        }
      ],
      "name": "getOutstandingDebt",
      "outputs": [
        {
          "internalType": "uint256",
          "name": "",
          "type": "uint256"
        }
      ],
      "stateMutability": "view",
      "type": "function"
    },
    {
      "inputs": [
        {
          "internalType": "bytes32",
          "name": "orderId",
          "type": "bytes32"
        }
      ],
      "name": "horders",
      "outputs": [
        {
          "components": [
            {
              "internalType": "address",
              "name": "borrower",
              "type": "address"
            },
            {
              "internalType": "uint256",
              "name": "ethAmountWei",
              "type": "uint256"
            },
            {
              "internalType": "uint64",
              "name": "borrowedUsd",
              "type": "uint64"
            },
            {
              "internalType": "bool",
              "name": "open",
              "type": "bool"
            }
          ],
          "internalType": "struct HederaCreditOApp.HOrderCompat",
          "name": "",
          "type": "tuple"
        }
      ],
      "stateMutability": "view",
      "type": "function"
    },
    {
      "inputs": [
        {
          "components": [
            {
              "internalType": "uint32",
              "name": "srcEid",
              "type": "uint32"
            },
            {
              "internalType": "bytes32",
              "name": "sender",
              "type": "bytes32"
            },
            {
              "internalType": "uint64",
              "name": "nonce",
              "type": "uint64"
            }
          ],
          "internalType": "struct Origin",
          "name": "",
          "type": "tuple"
        },
        {
          "internalType": "bytes",
          "name": "",
          "type": "bytes"
        },
        {
          "internalType": "address",
          "name": "_sender",
          "type": "address"
        }
      ],
      "name": "isComposeMsgSender",
      "outputs": [
        {
          "internalType": "bool",
          "name": "",
          "type": "bool"
        }
      ],
      "stateMutability": "view",
      "type": "function"
    },
    {
      "inputs": [
        {
          "internalType": "bytes32",
          "name": "orderId",
          "type": "bytes32"
        },
        {
          "internalType": "uint64",
          "name": "repayAmount",
          "type": "uint64"
        },
        {
          "internalType": "bytes[]",
          "name": "priceUpdateData",
          "type": "bytes[]"
        },
        {
          "internalType": "uint32",
          "name": "maxAgeSecs",
          "type": "uint32"
        },
        {
          "internalType": "address",
          "name": "ethRecipient",
          "type": "address"
        }
      ],
      "name": "liquidate",
      "outputs": [],
      "stateMutability": "payable",
      "type": "function"
    },
    {
      "inputs": [],
      "name": "ltvBps",
      "outputs": [
        {
          "internalType": "uint16",
          "name": "",
          "type": "uint16"
        }
      ],
      "stateMutability": "view",
      "type": "function"
    },
    {
      "inputs": [
        {
          "components": [
            {
              "internalType": "uint32",
              "name": "srcEid",
              "type": "uint32"
            },
            {
              "internalType": "bytes32",
              "name": "sender",
              "type": "bytes32"
            },
            {
              "internalType": "uint64",
              "name": "nonce",
              "type": "uint64"
            }
          ],
          "internalType": "struct Origin",
          "name": "_origin",
          "type": "tuple"
        },
        {
          "internalType": "bytes32",
          "name": "_guid",
          "type": "bytes32"
        },
        {
          "internalType": "bytes",
          "name": "_message",
          "type": "bytes"
        },
        {
          "internalType": "address",
          "name": "_executor",
          "type": "address"
        },
        {
          "internalType": "bytes",
          "name": "_extraData",
          "type": "bytes"
        }
      ],
      "name": "lzReceive",
      "outputs": [],
      "stateMutability": "payable",
      "type": "function"
    },
    {
      "inputs": [
        {
          "internalType": "uint32",
          "name": "",
          "type": "uint32"
        },
        {
          "internalType": "bytes32",
          "name": "",
          "type": "bytes32"
        }
      ],
      "name": "nextNonce",
      "outputs": [
        {
          "internalType": "uint64",
          "name": "nonce",
          "type": "uint64"
        }
      ],
      "stateMutability": "view",
      "type": "function"
    },
    {
      "inputs": [],
      "name": "oAppVersion",
      "outputs": [
        {
          "internalType": "uint64",
          "name": "senderVersion",
          "type": "uint64"
        },
        {
          "internalType": "uint64",
          "name": "receiverVersion",
          "type": "uint64"
        }
      ],
      "stateMutability": "pure",
      "type": "function"
    },
    {
      "inputs": [
        {
          "internalType": "bytes32",
          "name": "",
          "type": "bytes32"
        }
      ],
      "name": "oracleStates",
      "outputs": [
        {
          "internalType": "int64",
          "name": "lastPrice",
          "type": "int64"
        },
        {
          "internalType": "uint64",
          "name": "lastPublishTime",
          "type": "uint64"
        }
      ],
      "stateMutability": "view",
      "type": "function"
    },
    {
      "inputs": [],
      "name": "owner",
      "outputs": [
        {
          "internalType": "address",
          "name": "",
          "type": "address"
        }
      ],
      "stateMutability": "view",
      "type": "function"
    },
    {
      "inputs": [
        {
          "internalType": "uint32",
          "name": "eid",
          "type": "uint32"
        }
      ],
      "name": "peers",
      "outputs": [
        {
          "internalType": "bytes32",
          "name": "peer",
          "type": "bytes32"
        }
      ],
      "stateMutability": "view",
      "type": "function"
    },
    {
      "inputs": [
        {
          "internalType": "bytes32",
          "name": "",
          "type": "bytes32"
        }
      ],
      "name": "positions",
      "outputs": [
        {
          "internalType": "address",
          "name": "borrower",
          "type": "address"
        },
        {
          "internalType": "address",
          "name": "borrowerCanonical",
          "type": "address"
        },
        {
          "internalType": "bytes32",
          "name": "reserveId",
          "type": "bytes32"
        },
        {
          "internalType": "uint256",
          "name": "collateralWei",
          "type": "uint256"
        },
        {
          "internalType": "uint128",
          "name": "scaledDebtRay",
          "type": "uint128"
        },
        {
          "internalType": "bool",
          "name": "open",
          "type": "bool"
        },
        {
          "internalType": "bool",
          "name": "liquidated",
          "type": "bool"
        }
      ],
      "stateMutability": "view",
      "type": "function"
    },
    {
      "inputs": [],
      "name": "pyth",
      "outputs": [
        {
          "internalType": "contract IPyth",
          "name": "",
          "type": "address"
        }
      ],
      "stateMutability": "view",
      "type": "function"
    },
    {
      "inputs": [
        {
          "internalType": "bytes32",
          "name": "orderId",
          "type": "bytes32"
        }
      ],
      "name": "quoteRepayFee",
      "outputs": [
        {
          "internalType": "uint256",
          "name": "",
          "type": "uint256"
        }
      ],
      "stateMutability": "view",
      "type": "function"
    },
    {
      "inputs": [],
      "name": "renounceOwnership",
      "outputs": [],
      "stateMutability": "nonpayable",
      "type": "function"
    },
    {
      "inputs": [
        {
          "internalType": "bytes32",
          "name": "orderId",
          "type": "bytes32"
        },
        {
          "internalType": "uint64",
          "name": "usdAmount",
          "type": "uint64"
        },
        {
          "internalType": "bool",
          "name": "notifyEthereum",
          "type": "bool"
        }
      ],
      "name": "repay",
      "outputs": [
        {
          "internalType": "bool",
          "name": "fullyRepaid",
          "type": "bool"
        }
      ],
      "stateMutability": "payable",
      "type": "function"
    },
    {
      "inputs": [],
      "name": "reserveRegistry",
      "outputs": [
        {
          "internalType": "contract ReserveRegistry",
          "name": "",
          "type": "address"
        }
      ],
      "stateMutability": "view",
      "type": "function"
    },
    {
      "inputs": [
        {
          "internalType": "bytes32",
          "name": "",
          "type": "bytes32"
        }
      ],
      "name": "reserveStates",
      "outputs": [
        {
          "internalType": "uint256",
          "name": "totalVariableDebtRay",
          "type": "uint256"
        },
        {
          "internalType": "uint256",
          "name": "accruedProtocolFeesRay",
          "type": "uint256"
        },
        {
          "internalType": "uint128",
          "name": "liquidityIndex",
          "type": "uint128"
        },
        {
          "internalType": "uint128",
          "name": "variableBorrowIndex",
          "type": "uint128"
        },
        {
          "internalType": "uint40",
          "name": "lastUpdateTimestamp",
          "type": "uint40"
        },
        {
          "internalType": "uint32",
          "name": "lastBorrowRateBps",
          "type": "uint32"
        }
      ],
      "stateMutability": "view",
      "type": "function"
    },
    {
      "inputs": [
        {
          "internalType": "bool",
          "name": "enabled",
          "type": "bool"
        }
      ],
      "name": "setDebugStopAfterMint",
      "outputs": [],
      "stateMutability": "nonpayable",
      "type": "function"
    },
    {
      "inputs": [
        {
          "internalType": "bytes32",
          "name": "newReserveId",
          "type": "bytes32"
        }
      ],
      "name": "setDefaultReserve",
      "outputs": [],
      "stateMutability": "nonpayable",
      "type": "function"
    },
    {
      "inputs": [
        {
          "internalType": "address",
          "name": "_delegate",
          "type": "address"
        }
      ],
      "name": "setDelegate",
      "outputs": [],
      "stateMutability": "nonpayable",
      "type": "function"
    },
    {
      "inputs": [
        {
          "internalType": "uint32",
          "name": "_eid",
          "type": "uint32"
        }
      ],
      "name": "setEthEid",
      "outputs": [],
      "stateMutability": "nonpayable",
      "type": "function"
    },
    {
      "inputs": [
        {
          "internalType": "uint32",
          "name": "_eid",
          "type": "uint32"
        },
        {
          "internalType": "bytes32",
          "name": "_peer",
          "type": "bytes32"
        }
      ],
      "name": "setPeer",
      "outputs": [],
      "stateMutability": "nonpayable",
      "type": "function"
    },
    {
      "inputs": [
        {
          "internalType": "address",
          "name": "newRegistry",
          "type": "address"
        }
      ],
      "name": "setReserveRegistry",
      "outputs": [],
      "stateMutability": "nonpayable",
      "type": "function"
    },
    {
      "inputs": [
        {
          "internalType": "address",
          "name": "newOwner",
          "type": "address"
        }
      ],
      "name": "transferOwnership",
      "outputs": [],
      "stateMutability": "nonpayable",
      "type": "function"
    },
    {
      "stateMutability": "payable",
      "type": "receive"
    }
  ],
  "bytecode": "0x60a080604052346101715760009060a081614b4e80380380916100228285610176565b83398101031261016d57610035816101af565b610041602083016101af565b9161004e604082016101af565b608061005c606084016101af565b92015192610069336101c3565b6001600160a01b03908116608081905290851690811561015e57908187923b1561015a5760248392604051998a93849263ca5eb5e160e01b845260048401525af195861561014d576101029661013d575b505060016002556009805460ff19169055600480546001600160a01b039283166001600160a01b031991821617909155600580549390921692169190911790556003556101c3565b604051614943908161020b82396080518181816103e301528181610c96015281816119dd015281816138270152818161421c01526146820152f35b8161014791610176565b386100ba565b50604051903d90823e3d90fd5b8280fd5b632d618d8160e21b8752600487fd5b5080fd5b600080fd5b601f909101601f19168101906001600160401b0382119082101761019957604052565b634e487b7160e01b600052604160045260246000fd5b51906001600160a01b038216820361017157565b600080546001600160a01b039283166001600160a01b03198216811783559216907f8be0079c531659141344cd1fd0a4f28419497f9722a3daafe3b4186f6b6457e09080a356fe6080604052600436101561001b575b361561001957600080fd5b005b60003560e01c8063017e4c381461024b5780630cf84ca51461024657806313137d6514610241578063132e2b6a1461023c5780631338639a1461023757806317442b7014610232578063276b73771461022d5780633400288b1461022857806338f168a0146102235780633960129d1461021e5780634e70e97114610219578063514ea4bf14610214578063517880491461020f5780635e280f111461020a5780635e6e8ab61461020557806366d095bd146102005780636f726d9f146101fb5780636fdd9b3d146101f6578063715018a6146101f157806378ab7b8c146101ec5780637b4b8495146101e75780637d25a05e146101e257806382413eac146101dd5780638da5cb5b146101d85780638e71c1f6146101d3578063975abc19146101ce578063bb0b6a53146101c9578063c2d402a1146101c4578063ca5eb5e1146101bf578063dfe4359c146101ba578063e9135ad7146101b5578063f2fde38b146101b0578063f77c4791146101ab578063f98d06f0146101a65763ff7bd03d0361000e57611bfb565b611bd2565b611ba5565b611ad6565b611ab3565b611a5b565b6119b3565b61196c565b611931565b611892565b611869565b611840565b6117e2565b6117bb565b611740565b6116e4565b61168b565b610fb9565b610f2f565b610e5b565b610cc5565b610c80565b610c59565b610bbf565b610b75565b610660565b610626565b6105ad565b610586565b610564565b610546565b6104c6565b61037f565b61028e565b34610289576020366003190112610289576004356000526008602052604080600020546001600160401b038251918060070b8352831c166020820152f35b600080fd5b34610289576040366003190112610289576004356024356102ad612ff7565b6102b8811515611c42565b816000526006602052604060002090600482015460ff8160801c169081610321575b501561030b57610019926102f2826003850154611c93565b600284015493549093906001600160a01b03169161308c565b634ab7fa7760e01b600052600483905260246000fd5b60ff915060881c1615386102da565b606090600319011261028957600490565b9181601f84011215610289578235916001600160401b038311610289576020838186019501011161028957565b6001600160a01b0381160361028957565b60e03660031901126102895761039436610330565b6084356001600160401b038111610289576103b3903690600401610341565b906103bf60a43561036e565b60c4356001600160401b038111610289576103de903690600401610341565b5050337f00000000000000000000000000000000000000000000000000000000000000006001600160a01b03160361046257823561041b816104b8565b602061042682613195565b94013580940361043a57610019838361329c565b63ffffffff8161044a86936104b8565b63309afaf360e21b6000521660045260245260446000fd5b6391ac5e4f60e01b6000523360045260246000fd5b6001600160401b0381160361028957565b9181601f84011215610289578235916001600160401b038311610289576020808501948460051b01011161028957565b63ffffffff81160361028957565b6080366003190112610289576024356004356104e182610477565b604435906001600160401b03821161028957602092610507610525933690600401610488565b9160643593610515856104b8565b600354610520613462565b612631565b60016002556001600160401b0360405191168152f35b600091031261028957565b34610289576000366003190112610289576020600354604051908152f35b3461028957600036600319011261028957604080516001815260026020820152f35b346102895760003660031901126102895760206105a1611e47565b61ffff60405191168152f35b34610289576040366003190112610289577f238399d427b947898edb290f5ff0f9109849b1c3ba196a42e35f00c50a54b98b60406004356105ed816104b8565b63ffffffff602435916105fe612ff7565b169081600052600160205280836000205582519182526020820152a1005b8015150361028957565b34610289576020366003190112610289576004356106438161061c565b61064b612ff7565b60ff8019600954169115151617600955600080f35b60603660031901126102895760243560043561067b82610477565b6044356106878161061c565b61068f613462565b6001600160401b038316928315610ab4576106b4836000526006602052604060002090565b90600482019283546106ca8160ff9060801c1690565b9081610b5c575b5080610b40575b15610b2a576004546106fa906001600160a01b03165b6001600160a01b031690565b95600284019586546000604051809a63094b923760e31b8252818061072786600483019190602083019252565b03915afa988915610a9e57600099610b05575b50885160400151610757906106ee9081906001600160a01b031681565b60405163019a92db60e61b81529099906020816004818e5afa908115610a9e57600091610ad6575b5060ff61079a61079460808551015160ff1690565b60ff1690565b911603610ac55751608001516107c8906107c29060ff16926000526007602052604060002090565b876134b6565b948515610ab4576107d98287613519565b80919411610aa3575b5085546001600160a01b031698803b156102895760405163ebdd7a6160e01b81526001600160a01b039a909a1660048b01526001600160401b03841660248b01526000908a90604490829084905af1908115610a9e576109e39961085592610a83575b506001600160401b03841661357c565b9561086b88546000526007602052604060002090565b96600288019061087c825460801c90565b6001600160801b038116610a7257506108aa6001600160801b03676765c793fa10079d601b1b5b1682613596565b83546001600160801b031690818110610a11575050508161093f6109699261091461090c6109007fc0cf0469ba0c1d2c52d4df0fa3bba68d2fbee76c182c430fd3b46320314e938597546001600160801b031690565b6001600160801b031690565b915460801c90565b6001600160801b038116610a0357506001600160801b03676765c793fa10079d601b1b5b1690613600565b81546001600160801b0319168255985b61095a8a825461219b565b9055546001600160801b031690565b9754604080516001600160401b039590951685526001600160801b03909916602085018190521598840189905292606090a3806109ef575b156109e7576109bd6003916109b86109c5956121a8565b6121d3565b9101546121c0565b505b6109d16001600255565b60405190151581529081906020820190565b0390f35b5050506109c7565b5060055460a01c63ffffffff1615156109a1565b6001600160801b0390610938565b6109699350610a517fc0cf0469ba0c1d2c52d4df0fa3bba68d2fbee76c182c430fd3b46320314e938595939b926001600160801b03610a6d93169061217b565b83546001600160801b0319166001600160801b03909116178355565b61094f565b6001600160801b036108aa916108a3565b80610a926000610a9893611d62565b8061053b565b38610845565b611e3b565b6001600160401b03169250386107e2565b63749b593960e01b60005260046000fd5b630e0920bb60e21b60005260046000fd5b610af8915060203d602011610afe575b610af08183611d62565b810190612166565b3861077f565b503d610ae6565b610b239199503d806000833e610b1b8183611d62565b810190612070565b973861073a565b634ab7fa7760e01b600052600485905260246000fd5b5082546001600160a01b03166001600160a01b031633146106d8565b610b6f915060881c60ff161590565b1590565b386106d1565b3461028957602036600319011261028957600435610b92816104b8565b610b9a612ff7565b6005805463ffffffff60a01b191660a09290921b63ffffffff60a01b16919091179055005b3461028957602036600319011261028957600435600090815260066020908152604091829020805460018201546002830154600384015460049094015486516001600160a01b03948516815293909216948301949094529381019290925260608201526001600160801b03821660808083019190915260ff9083901c8116151560a083015260889290921c909116151560c082015260e090f35b3461028957600036600319011261028957602063ffffffff60055460a01c16604051908152f35b34610289576000366003190112610289576040517f00000000000000000000000000000000000000000000000000000000000000006001600160a01b03168152602090f35b346102895760a036600319011261028957604435602435600435610ce88361036e565b7f66f8da9586df2ab72793f20868a18d6cd837c5d7edadcc7e74e58bde4788544f610e4f606435610d188161036e565b610e0560843591610d27612ff7565b6001600160a01b038816978390600390610d428b15156121f3565b610d4d831515611c42565b610dd0610d648a6000526006602052604060002090565b916004830195610d84610d7f610b6b895460ff9060801c1690565b61222c565b83546001600160a01b0319166001600160a01b0383161784556001600160a01b038116610e5457505b6001830180546001600160a01b0319166001600160a01b03909216919091179055565b600281018a90550155805470ffffffffffffffffffffffffffffffffff1916600160801b1781555b805460ff60881b19169055565b8585857f4f4b9d1e340f71bf10fe4ab0d06de3124d32df05ed060e2fe7997a320ad220e560405180610e3c87829190602083019252565b0390a46040519081529081906020820190565b0390a4005b9050610dad565b346102895760203660031901126102895760043560005260066020526040600020610ed46000610e9c600284015493848352600760205260408320906134b6565b600454909390610eb4906001600160a01b03166106ee565b604051808095819463094b923760e31b8352600483019190602083019252565b03915afa918215610a9e57610efe60806109e394610f0494600091610f14575b5051015160ff1690565b90613519565b6040519081529081906020820190565b610f2991503d806000833e610b1b8183611d62565b38610ef4565b34610289576020366003190112610289576109e3610fa860043580600052600660205260026040600020015460405191600160208401526040830152606082015260608152610f7f608082611d62565b610f8f610f8a61362f565b61364b565b90610fa360055463ffffffff9060a01c1690565b6137c3565b516040519081529081906020820190565b60a036600319011261028957602435600435610fd482610477565b6044356001600160401b03811161028957610ff3903690600401610488565b91909260643592611003846104b8565b608435936110108561036e565b611018613462565b61102c6001600160a01b038616151561226b565b611040846000526006602052604060002090565b92600484019081546110568160ff9060801c1690565b9081611676575b5015611660576001600160401b036110bc91169261107c8415156122a5565b600454611091906001600160a01b03166106ee565b9460006002880196875490604051808097819463094b923760e31b8352600483019190602083019252565b03915afa928315610a9e57600093611645575b506110ef83516110e260a0820151151590565b9081611638575b506122db565b600460206111106106ee6106ee6106ee60408951015160018060a01b031690565b60405163019a92db60e61b815292839182905afa908115610a9e57600091611619575b5060ff61114861079460808751015160ff1690565b911603610ac5576000998161152d575b505061116b9085546060840151906139bc565b61117681151561240e565b84549161119d608061119360208401958651604086015191613d5e565b9251015160ff1690565b906111bc826111ac838b6134b6565b6111b7811515612446565b613519565b6111d36111ce8483878d8a5190614042565b61247c565b808711611525575b61120361120b916111fd6111f6606089510161ffff90511690565b61ffff1690565b906121c0565b612710900490565b8015158061151c575b611512575b50916112da60406112cf846112e0966112c78a61124460039b998e61123f8115156124b2565b61357c565b600284019061126061125a610900845460801c90565b82613596565b9061127284546001600160801b031690565b906001600160801b03821683106114d7575050506112ab6109006112a36109006112b195546001600160801b031690565b925460801c90565b90613600565b8b546001600160801b0319168c555b825461219b565b905589614080565b9351015161ffff1690565b916140dd565b940180548086116114cf575b856112f69161219b565b90556001600160801b0361131182546001600160801b031690565b161590816114a6575b508254604080516001600160401b03949094168452602084018690526001600160a01b038816908401529015156060830152339185907fda461cbacfb767a147d754c18d67db7e2be7b0b0c6c6c1a7e6e7aa5f451bacda90608090a460055460a01c63ffffffff1615158061149d575b15611463575460408051600260208201529081019390935260608301526001600160a01b0392909216608082015260a0808201929092529081526114319161141490611429906113db60c085611d62565b6113eb6113e661362f565b6136a6565b906113ff60055463ffffffff9060a01c1690565b9161140b8187856137c3565b9485923461219b565b956114228351881015612558565b3393614193565b50519061219b565b80611443575b505b6100196001600255565b600080808061145d94335af16114576124ee565b5061251e565b38611437565b5050505080611473575b50611439565b61147d903461219b565b801561146d57600080808061149794335af16114576124ee565b3861146d565b5081151561138a565b805460ff60801b191681556114c9905b805460ff60881b1916600160881b179055565b3861131a565b9450846112ec565b935061150d92506114f1916001600160801b03169061217b565b8d546001600160801b0319166001600160801b03909116178d55565b6112c0565b95506112da611219565b50808711611214565b9550856111db565b600554919a509190611547906001600160a01b03166106ee565b60405163d47eed4560e01b8152909a6020828d818061156a868a6004840161234a565b03915afa918215610a9e576000926115e8575b50819b61158c833410156123dc565b803b1561028957604051631df3cbc560e31b8152946000938693849283916115b7916004840161234a565b03925af1918215610a9e5761116b926115d3575b819250611158565b80610a9260006115e293611d62565b386115cb565b61160b91925060203d602011611612575b6116038183611d62565b81019061231a565b903861157d565b503d6115f9565b611632915060203d602011610afe57610af08183611d62565b38611133565b60c00151159050386110e9565b61165991933d8091833e610b1b8183611d62565b91386110cf565b634ab7fa7760e01b600052600486905260246000fd5b611685915060881c60ff161590565b3861105d565b34610289576000366003190112610289576116a4612ff7565b600080546001600160a01b0319811682556001600160a01b03167f8be0079c531659141344cd1fd0a4f28419497f9722a3daafe3b4186f6b6457e08280a3005b60a03660031901126102895760243560443560043561170282610477565b606435916001600160401b03831161028957602093611728610525943690600401610488565b92909160843594611738866104b8565b610520613462565b34610289576020366003190112610289576004356000908152600760209081526040918290208054600182015460028301546003909301548551928352938201526001600160801b03821693810193909352608090811c606084015264ffffffffff82169083015260281c63ffffffff1660a082015260c090f35b34610289576040366003190112610289576117d76004356104b8565b602060405160008152f35b346102895760a0366003190112610289576117fc36610330565b506064356001600160401b0381116102895761181c903690600401610341565b5050602060843561182c8161036e565b6040516001600160a01b0390911630148152f35b34610289576000366003190112610289576000546040516001600160a01b039091168152602090f35b34610289576000366003190112610289576004546040516001600160a01b039091168152602090f35b34610289576020366003190112610289576004356118af8161036e565b6118b7612ff7565b6001600160a01b031680156118ff57600480546001600160a01b031916821790557f55d5c903d6c2f6cf5f3c6965f5f63891ee7ae1f7bced6eecc09f2ee42b8c6db3600080a2005b60405162461bcd60e51b815260206004820152600a602482015269072656769737472793d360b41b6044820152606490fd5b346102895760203660031901126102895763ffffffff600435611953816104b8565b1660005260016020526020604060002054604051908152f35b3461028957602036600319011261028957600435611988612ff7565b806003557f1f48bcd82e2c9c50f012660f4f99f2ec93288a1b1ece69ab3480af1777244f44600080a2005b346102895760006020366003190112611a5857806004356119d38161036e565b6119db612ff7565b7f00000000000000000000000000000000000000000000000000000000000000006001600160a01b0316803b15611a545760405163ca5eb5e160e01b81526001600160a01b0390921660048301529091908290602490829084905af18015610a9e578290611a465780f35b611a4f91611d62565b388180f35b5050fd5b80fd5b34610289576020366003190112610289576080611a79600435612d4e565b60606040519160018060a01b038151168352602081015160208401526001600160401b036040820151166040840152015115156060820152f35b3461028957600036600319011261028957602060ff600954166040519015158152f35b3461028957602036600319011261028957600435611af38161036e565b611afb612ff7565b6001600160a01b03811615611b5157600080546001600160a01b039283166001600160a01b03198216811783559216907f8be0079c531659141344cd1fd0a4f28419497f9722a3daafe3b4186f6b6457e09080a3005b60405162461bcd60e51b815260206004820152602660248201527f4f776e61626c653a206e6577206f776e657220697320746865207a65726f206160448201526564647265737360d01b6064820152608490fd5b34610289576000366003190112610289576020611bc0612f5a565b6040516001600160a01b039091168152f35b34610289576000366003190112610289576005546040516001600160a01b039091168152602090f35b34610289576060366003190112610289576020611c1736610330565b63ffffffff8135611c27816104b8565b16600052600182528160406000205491013560405191148152f35b15611c4957565b60405162461bcd60e51b815260206004820152600c60248201526b0636f6c6c61746572616c3d360a41b6044820152606490fd5b634e487b7160e01b600052601160045260246000fd5b91908201809211611ca057565b611c7d565b634e487b7160e01b600052604160045260246000fd5b60c081019081106001600160401b03821117611cd657604052565b611ca5565b60a081019081106001600160401b03821117611cd657604052565b608081019081106001600160401b03821117611cd657604052565b60e081019081106001600160401b03821117611cd657604052565b604081019081106001600160401b03821117611cd657604052565b606081019081106001600160401b03821117611cd657604052565b90601f801991011681019081106001600160401b03821117611cd657604052565b60405190611d9260e083611d62565b565b60405190611d92608083611d62565b60405190611d9260a083611d62565b519061ffff8216820361028957565b91908260c091031261028957604051611dd981611cbb565b60a0611e36818395611dea81611db2565b8552611df860208201611db2565b6020860152611e0960408201611db2565b6040860152611e1a60608201611db2565b6060860152611e2b60808201611db2565b608086015201611db2565b910152565b6040513d6000823e3d90fd5b6004805460035460405163569aea0760e11b81529283015260c090829060249082906001600160a01b03165afa60009181611e93575b50611e885750600090565b5161ffff1690565b90565b90915060c03d60c011611ec7575b611eab8183611d62565b810160c08282031261028957611ec091611dc1565b9038611e7d565b503d611ea1565b6001600160401b038111611cd657601f01601f191660200190565b60005b838110611efc5750506000910152565b8181015183820152602001611eec565b81601f82011215610289578051611f2281611ece565b92611f306040519485611d62565b8184526020828401011161028957611e909160208085019101611ee9565b5190611d928261036e565b60ff81160361028957565b5190611d9282611f59565b5190611d928261061c565b91909160e08184031261028957611f8f611d83565b92815184526020820151916001600160401b03831161028957611fb960c092612008948301611f0c565b6020860152611fca60408201611f4e565b6040860152611fdb60608201611f4e565b6060860152611fec60808201611f64565b6080860152611ffd60a08201611f6f565b60a086015201611f6f565b60c0830152565b91908260a09103126102895760405161202781611cdb565b6080611e36818395805185526020810151612041816104b8565b60208601526040810151612054816104b8565b604086015261206560608201611db2565b606086015201611db2565b602081830312610289578051906001600160401b038211610289570180820391610220831261028957604051926120a684611cf6565b8251906001600160401b038211610289576120c58360a0938601611f7a565b85526120d48360208601611dc1565b602086015260df1901126102895761018061215e926040516120f581611cdb565b60e0820151612103816104b8565b8152610100820151612114816104b8565b6020820152610120820151612128816104b8565b604082015261014082015161213c816104b8565b606082015261214e6101608301611db2565b608082015260408601520161200f565b606082015290565b908160209103126102895751611e9081611f59565b906001600160801b03809116911603906001600160801b038211611ca057565b91908203918211611ca057565b906127108202918083046127101490151715611ca057565b81810292918115918404141715611ca057565b81156121dd570490565b634e487b7160e01b600052601260045260246000fd5b156121fa57565b60405162461bcd60e51b815260206004820152600a6024820152690626f72726f7765723d360b41b6044820152606490fd5b1561223357565b60405162461bcd60e51b815260206004820152601060248201526f185b1c9958591e481b5a5c9c9bdc995960821b6044820152606490fd5b1561227257565b60405162461bcd60e51b815260206004820152600b60248201526a0726563697069656e743d360ac1b6044820152606490fd5b156122ac57565b60405162461bcd60e51b8152602060048201526007602482015266072657061793d360cc1b6044820152606490fd5b156122e257565b60405162461bcd60e51b815260206004820152601060248201526f7265736572766520696e61637469766560801b6044820152606490fd5b90816020910312610289575190565b908060209392818452848401376000828201840152601f01601f1916010190565b9180602084016020855252604083019060408160051b8501019383600091601e1982360301905b848410612382575050505050505090565b90919293949596603f1982820301875287358381121561028957840190602082359201916001600160401b038111610289578036038313610289576123cd6020928392600195612329565b99019701959401929190612371565b156123e357565b60405162461bcd60e51b815260206004820152600360248201526266656560e81b6044820152606490fd5b1561241557565b60405162461bcd60e51b815260206004820152600960248201526862616420707269636560b81b6044820152606490fd5b1561244d57565b60405162461bcd60e51b81526020600482015260076024820152661b9bc81919589d60ca1b6044820152606490fd5b1561248357565b60405162461bcd60e51b81526020600482015260076024820152666865616c74687960c81b6044820152606490fd5b156124b957565b60405162461bcd60e51b815260206004820152600d60248201526c0636c6f7365466163746f723d3609c1b6044820152606490fd5b3d15612519573d906124ff82611ece565b9161250d6040519384611d62565b82523d6000602084013e565b606090565b1561252557565b60405162461bcd60e51b815260206004820152600b60248201526a1c99599d5b990819985a5b60aa1b6044820152606490fd5b1561255f57565b60405162461bcd60e51b8152602060048201526016602482015275696e73756666696369656e74206d73672e76616c756560501b6044820152606490fd5b156125a457565b60405162461bcd60e51b815260206004820152600b60248201526a32bc31b2b2b23990262a2b60a91b6044820152606490fd5b156125de57565b60405162461bcd60e51b815260206004820152600b60248201526a1999594f8f585b5bdd5b9d60aa1b6044820152606490fd5b906001600160801b03809116911601906001600160801b038211611ca057565b949190946001600160401b038216938415610ab45761265a876000526006602052604060002090565b94600486019182546126708160ff9060801c1690565b9081612c50575b5080612c34575b15612c1e576002870154848103612c0557506004546126a5906001600160a01b03166106ee565b60405163094b923760e31b8152600481018690529190600090839060249082905afa918215610a9e57600092612bea575b5081516126e9610b6b60a0830151151590565b908115612bdc575b50612bc657815160400151612712906106ee9081906001600160a01b031681565b60405163019a92db60e61b81529099906020816004818e5afa908115610a9e57600091612ba7575b5060ff61274f61079460808751015160ff1690565b911603610ac55761275f916142b8565b9560608201519061277091866139bc565b91846040518061278586829190602083019252565b037ffd38e9c1eabfe103044a6c6bf6baf9c0a81b39eaa792e4d887c4aee3a59df10991a2602082019288845191604085019283516127c3918a613d5e565b9451608001519495869560ff166127dc819782956134b6565b906127e691613519565b6127f08487614080565b936127fa91614080565b9160038d01549061280a916121c0565b670de0b6b3a7640000900490515161ffff1661ffff16612829916121c0565b61271090049161283891611c93565b11156128439061259d565b51608001516128569061ffff16826143d7565b986128628a83116125d7565b61286c8a8361219b565b98546040805160808082526017908201527f7472616e736665725f626f72726f7765725f737461727400000000000000000060a08201526001600160401b039b8c16602082018190529c909b16908b018190526001600160a01b0390911660608b0181905290999091908c907ff3fdde4359f31413ce73857ca968cb90190afbcadb306dee21c552e2aedd567f9060c090a2803b15610289576040516374f931af60e11b81526001600160a01b039290921660048301526001600160401b038b1660248301526000908290604490829084905af19081612b92575b506129de5750505050505050907ff3fdde4359f31413ce73857ca968cb90190afbcadb306dee21c552e2aedd567f9161297e6124ee565b506040805160808082526018908201527f7472616e736665725f626f72726f7765725f6661696c6564000000000000000060a08201526001600160401b039384166020820152919092169181019190915233606082015260c090a2600090565b9998949692939597996129f360095460ff1690565b612b1c5790612a019161357c565b90612a1c612a16610900600284015460801c90565b83613596565b906001600160801b038211612b0b57612a9d612aad93612a967fb9f0cf140aa10ccb1f1e11e5eae215b753f2cfc0168c273775914ea473b6960597612a7c6001600160801b0360039716612a7783546001600160801b031690565b612611565b6001600160801b03166001600160801b0319825416179055565b8254611c93565b8155015460281c63ffffffff1690565b604080516001600160401b0397881681528a88166020820152929096169582019590955263ffffffff90941660608501523393608090a4803411612aee5750565b6000808080612b00611d92953461219b565b335af16114576124ee565b63d9d8787160e01b60005260046000fd5b604080516080808252600990820152681c1bdcdd17db5a5b9d60ba1b60a082015260208101929092526001600160401b03949094169381019390935250503360608201529596959194507ff3fdde4359f31413ce73857ca968cb90190afbcadb306dee21c552e2aedd567f935060c0925050a290565b80610a926000612ba193611d62565b38612947565b612bc0915060203d602011610afe57610af08183611d62565b3861273a565b632c6ea07160e11b600052600485905260246000fd5b60c0015115159050386126f1565b612bfe91923d8091833e610b1b8183611d62565b90386126d6565b6302d0341f60e51b600052600452602484905260446000fd5b634ab7fa7760e01b600052600489905260246000fd5b5086546001600160a01b03166001600160a01b0316331461267e565b612c5f915060881c60ff161590565b38612677565b60405190612c7282611cf6565b60006060838281528260208201528260408201520152565b60405190612c9782611cdb565b60006080838281528260208201528260408201528260608201520152565b60405190612cc282611cf6565b81604051612ccf81611d11565b6000815260606020820152600060408201526000606082015260006080820152600060a0820152600060c08201528152604051612d0b81611cbb565b6000815260006020820152600060408201526000606082015260006080820152600060a08201526020820152612d3f612c8a565b60408201526060611e36612c8a565b612d6b90612d5a612c65565b506000526006602052604060002090565b6004810154608081901c60ff168015612f3357600283015480612f2d5750600354915b612d96612cb5565b50600454612dac906001600160a01b03166106ee565b60405163094b923760e31b81526004810185905290600090829060249082905afa60009181612f10575b50612e4157508354611e9093506003906001600160a01b03169401549082612e29575b50612e14612e05611d94565b6001600160a01b039095168552565b60208401526000604084015215156060830152565b909150612e3a9060881c60ff161590565b9038612df9565b611e9093610efe6080611193612e65612e6b95946000526007602052604060002090565b896134b6565b906001600160401b038211612f01575b84546003906001600160a01b03169501549083612eda575b50612ed1916001600160401b0391612ebb612eac611d94565b6001600160a01b039098168852565b6020870152166001600160401b03166040850152565b15156060830152565b909250612ed1916001600160401b0391612ef89060881c60ff161590565b93915091612e93565b6001600160401b039150612e7b565b612f269192503d806000833e610b1b8183611d62565b9038612dd6565b91612d8e565b505050612f3e611d94565b6000815260006020820152600060408201526000606082015290565b6004805460035460405163296586d360e21b815292830152600090829060249082906001600160a01b03165afa60009181612fab575b50612f9b5750600090565b604001516001600160a01b031690565b9291923d8085833e612fbd8183611d62565b810190602081830312612ff3578051906001600160401b038211612fef57612fe89394955001611f7a565b9038612f90565b8580fd5b8480fd5b6000546001600160a01b0316330361300b57565b606460405162461bcd60e51b815260206004820152602060248201527f4f776e61626c653a2063616c6c6572206973206e6f7420746865206f776e65726044820152fd5b1561305657565b60405162461bcd60e51b815260206004820152600e60248201526d0e8dee8c2d840dad2e6dac2e8c6d60931b6044820152606490fd5b91939092938415610ab4576130ab836000526006602052604060002090565b6004810154608081901c60ff169081613180575b508061316a575b1561315457600281015485810361313b5750908260037fa2866a9baf540d04997b01dcfba7f51b515a14e423fc07b33461ee14843215ba94930161311661310e898354611c93565b83101561304f565b556040805196875260208701929092526001600160a01b03169490819081015b0390a4565b6302d0341f60e51b600052600452602485905260446000fd5b634ab7fa7760e01b600052600484905260246000fd5b5080546001600160a01b038381169116146130c6565b61318f915060881c60ff161590565b386130bf565b63ffffffff168060005260016020526040600020549081156131b5575090565b63f6ff4fb760e01b60005260045260246000fd5b90156131d25790565b634e487b7160e01b600052603260045260246000fd5b91908260c09103126102895781356131ff81611f59565b91602081013591604082013591606081013561321a8161036e565b9160a0608083013592013590565b908160a091031261028957803561323e81611f59565b916020820135916040810135916080606083013561325b8161036e565b92013590565b1561326857565b60405162461bcd60e51b815260206004820152600c60248201526b6f726465722065786973747360a01b6044820152606490fd5b9060ff6132c36132bd6132af84866131c9565b356001600160f81b03191690565b60f81c90565b16806133a357506132fb82613136927f4f4b9d1e340f71bf10fe4ab0d06de3124d32df05ed060e2fe7997a320ad220e5940190613228565b9592935060018060a09693961b031694610f04866001613325876000526006602052604060002090565b61338360048201613346613341610b6b835460ff9060801c1690565b613261565b82546001600160a01b0319166001600160a01b038616178355600283018b905560038301879055805460ff60801b1916600160801b178155610df8565b0180546001600160a01b0319166001600160a01b03909216919091179055565b600281036134325750816133bb916000930190613228565b505091506133e960046133d8836000526006602052604060002090565b01805460ff60801b191681556114b6565b7fda461cbacfb767a147d754c18d67db7e2be7b0b0c6c6c1a7e6e7aa5f451bacda6040518061313681906001606060808401936000815260006020820152600060408201520152565b60031461343d575050565b8161344d91611d929301906131e8565b9450926001600160a01b03909116919061308c565b60028054146134715760028055565b60405162461bcd60e51b815260206004820152601f60248201527f5265656e7472616e637947756172643a207265656e7472616e742063616c6c006044820152606490fd5b600401546001600160801b031680156134f0576002611e9092015460801c8015600014610a035750676765c793fa10079d601b1b90613600565b5050600090565b60ff16601b039060ff8211611ca057565b60ff16604d8111611ca057600a0a90565b601b60ff83161161353e57613538613533611e90936134f7565b613508565b906121d3565b60405162461bcd60e51b81526020600482015260116024820152700888a86929a8298a6bea89e9ebe90928e9607b1b604482015280606481015b0390fd5b601b60ff83161161353e576111fd613533611e90936134f7565b9080156135cd57676765c793fa10079d601b1b820291808304676765c793fa10079d601b1b1490151715611ca057611e90916121d3565b60405162461bcd60e51b815260206004820152600b60248201526a4449565f42595f5a45524f60a81b6044820152606490fd5b80158015613627575b6134f057676765c793fa10079d601b1b91613623916121c0565b0490565b508115613609565b604051600360f01b602082015260028152611e90602282611d62565b600361ffff613659836143f9565b16036136855760405161075360861b602082015260108152611e9091613680603083611d62565b6144a7565b61369161ffff916143f9565b633a51740d60e01b6000521660045260246000fd5b600361ffff6136b4836143f9565b160361368557604051610c3560861b602082015260108152611e9091613680603083611d62565b604051906136e882611d2c565b60006020838281520152565b91908260409103126102895760405161370c81611d2c565b6020808294805184520151910152565b9060408282031261028957611e90916136f4565b9060209161374981518092818552858086019101611ee9565b601f01601f1916010190565b906020909392936040835263ffffffff815116604084015281810151606084015260806137a9613793604084015160a08488015260e0870190613730565b6060840151868203603f190160a0880152613730565b910151151560c08401526001600160a01b03909416910152565b613823926040926137d26136db565b506137dc83613195565b6137f36137e7611da3565b63ffffffff9095168552565b602084015283830152606082015260006080820152815180938192631bb8518b60e31b8352309060048401613755565b03817f00000000000000000000000000000000000000000000000000000000000000006001600160a01b03165afa908115610a9e57600091613863575090565b611e90915060403d604011613885575b61387d8183611d62565b81019061371c565b503d613873565b1561389357565b60405162461bcd60e51b815260206004820152600c60248201526b1bdc9858db19481d5b9cd95d60a21b6044820152606490fd5b90816080910312610289576040519060006138e183611cf6565b81518060070b810361392457835260208201516138fd81610477565b602084015260408201518060030b8103613924576040840152506060908101519082015290565b5080fd5b9063ffffffff613945602092959495604085526040850190613730565b9416910152565b1561395357565b60405162461bcd60e51b81526020600482015260096024820152680c6dedccc40d0d2ced60bb1b6044820152606490fd5b1561398b57565b60405162461bcd60e51b8152602060048201526009602482015268383934b1b2903232bb60b91b6044820152606490fd5b909291926139cc8151151561388c565b604081015163ffffffff169363ffffffff81168015159081613d1d575b50613d15575b5063ffffffff841615613cfc575b613a05612c65565b50600554613a55906080908690613a24906001600160a01b03166106ee565b845160405180958194829363052571af60e51b84526004840190929163ffffffff6020916040840195845216910152565b03915afa60009181613ccb575b50613a8c5784613a706124ee565b613578604051928392630705e38160e11b845260048401613928565b909192935090613aab6000613aa2845160070b90565b60070b1361240e565b613ac8613abf602083015163ffffffff1690565b63ffffffff1690565b8015159081613cb4575b50613c81576040613b8b613b7f836080613b16611e90986060613b94980161ffff613aff825161ffff1690565b16613c35575b506000526008602052604060002090565b9101613b276111f6825161ffff1690565b151580613c19575b613b9a575b50613b7f613b43875160070b90565b825460608901516001600160801b03199091166001600160401b0383161760409190911b6fffffffffffffffff00000000000000001617909255565b6001600160401b031690565b92015160030b90565b90614562565b613bab613b7f613b7f845460070b90565b90613bbd613b7f613b7f8a5160070b90565b8280821115613c0a57613bcf9161219b565b82613bdc575b5050613b34565b6111f6613bf2613c02946109b8613bfb946121a8565b925161ffff1690565b1015613984565b388080613bd5565b90613c149161219b565b613bcf565b50613c2e613c28835460070b90565b60070b90565b1515613b2f565b613c7b90613c746111f6613bf28d6109b8613c6e613b7f613b7f613c66613b7f60208701516001600160401b031690565b945160070b90565b916121a8565b101561394c565b38613b05565b60405162461bcd60e51b815260206004820152600b60248201526a7072696365207374616c6560a81b6044820152606490fd5b613cc391506060840151611c93565b421138613ad2565b613cee91925060803d608011613cf5575b613ce68183611d62565b8101906138c7565b9038613a62565b503d613cdc565b9250613d0f602084015163ffffffff1690565b926139fd565b9350386139ef565b905063ffffffff86168015918215613d38575b5050386139e9565b1090503880613d30565b9064ffffffffff8091169116039064ffffffffff8211611ca057565b929092613d75816000526007602052604060002090565b92600284016001600160801b03613d9382546001600160801b031690565b1615614022575b613da8610900825460801c90565b15614002575b5064ffffffffff4216946003850164ffffffffff613dd1825464ffffffffff1690565b1615613fdb57506003850191613e02613df8613df2855464ffffffffff1690565b89613d42565b64ffffffffff1690565b9283158015613fd2575b613f7c57508596613eea613e9f613f0293613e83613e56613abf7f2e78944d8f7121dcdb72d60e78448ece151dbcf3aa5303c5895d97406bd808b29a9b9c54935163ffffffff1690565b60038d01805468ffffffff00000000001916602883901b68ffffffff0000000000161781559890836145c2565b818d9892985580151580613f61575b613f2e575b505085613596565b613ee0613ec061090060028d0193613ebb610900865460801c90565b613600565b82546001600160801b031660809190911b6001600160801b031916178255565b805460801c612a7c565b835464ffffffffff191664ffffffffff909116178355565b6001860154915460408051928352602083019390935260281c63ffffffff1691810191909152606090a2565b613f436111f66080613f4994015161ffff1690565b906143d7565b613f5860018d01918254611c93565b90553880613e97565b5061ffff613f74608084015161ffff1690565b161515613e92565b93509050613faf9150613fa5611e909496849064ffffffffff1664ffffffffff19825416179055565b5163ffffffff1690565b68ffffffff000000000082549160281b169068ffffffff00000000001916179055565b50865415613e0c565b925050613faf90613fa5611e909496849064ffffffffff1664ffffffffff19825416179055565b80546001600160801b0316676765c793fa10079d609b1b17905538613dae565b80546001600160801b031916676765c793fa10079d601b1b178155613d9a565b6020614071612710959396670de0b6b3a764000061406a61407b97600361ffff9701546121c0565b0494614080565b95015116906121c0565b041090565b9060ff16601281106140b15760128111614098575090565b601119019060ff8211611ca057613538611e9092613508565b6012039060ff8211611ca0576111fd611e9092613508565b61ffff60019116019061ffff8211611ca057565b909161ffff166127100161ffff8111611ca0576127109161ffff6141029216906121c0565b0490670de0b6b3a7640000820291808304670de0b6b3a76400001490151715611ca057611e90916121d3565b6040519061413b82611d47565b8160008152600060208201526040611e366136db565b906080828203126102895761418b90604080519361416e85611d47565b80518552602081015161418081610477565b6020860152016136f4565b604082015290565b6141fc6080949261421896946141a761412e565b5060206141b48651614654565b950191825180614281575b506141c985613195565b92511515926141e56141d9611da3565b63ffffffff9097168752565b602086015260408501526060840152151585830152565b6040518095819482936302637a4560e41b845260048401613755565b03917f00000000000000000000000000000000000000000000000000000000000000006001600160a01b03165af1908115610a9e57600091614258575090565b611e90915060803d60801161427a575b6142728183611d62565b810190614151565b503d614268565b61428a90614673565b386141bf565b90926142a9606093969594608084526080840190613730565b95602083015260408201520152565b909182156143cf576005546142d5906001600160a01b03166106ee565b906040519263d47eed4560e01b8452602084806142f688856004840161234a565b0381865afa938415610a9e576000946143ae575b50839284341061439457803b1561028957856000916143409387604051809681958294631df3cbc560e31b84526004840161234a565b03925af1908161437f575b5061437957505061357861435d6124ee565b92604051938493637694f82560e01b8552349160048601614290565b91509150565b80610a92600061438e93611d62565b3861434b565b6377d466a760e11b60005260048590523460245260446000fd5b6143c891945060203d602011611612576116038183611d62565b923861430a565b915050600090565b801580156143f1575b6134f05761271091613623916121c0565b5081156143e0565b6002815110614409576002015190565b60405162461bcd60e51b8152602060048201526014602482015273746f55696e7431365f6f75744f66426f756e647360601b6044820152606490fd5b60209061445c600496959382815194859201611ee9565b600160f81b910190815260f09290921b6001600160f01b031916600183015260f81b6001600160f81b03191660038201528151916144a290839085840190602001611ee9565b010190565b600361ffff6144b5836143f9565b16036136855781519061ffff82116144fa576144ec6144da61ffff611e9094166140c9565b93600160405195869460208601614445565b03601f198101835282611d62565b60405162461bcd60e51b815260206004820152602660248201527f53616665436173743a2076616c756520646f65736e27742066697420696e203160448201526536206269747360d01b6064820152608490fd5b63ffffffff16604d8111611ca057600a0a90565b9060129060030b0190637fffffff198212637fffffff831317611ca0578160030b91600083136145ae5750637fffffff198214611ca057613538611e909260000363ffffffff1661454e565b611e9092506111fd9063ffffffff1661454e565b9291908315801561464c575b8015614644575b6134f05769152d02c7e14af680000081029080820469152d02c7e14af68000001490151715611ca0576301e133809161460d916121c0565b04676765c793fa10079d601b1b0180676765c793fa10079d601b1b11611ca0576146379083613600565b918203828111611ca05790565b5081156145d5565b5080156145ce565b80340361465e5790565b6304fb820960e51b6000523460045260246000fd5b60405163393f876560e21b81527f00000000000000000000000000000000000000000000000000000000000000006001600160a01b03169190602081600481865afa908115610a9e576000916146f1575b506001600160a01b03169182156146e057611d9292339061472c565b6329b99a9560e11b60005260046000fd5b90506020813d602011614724575b8161470c60209383611d62565b81010312610289575161471e8161036e565b386146c4565b3d91506146ff565b6040516323b872dd60e01b602082019081526001600160a01b039384166024830152939092166044830152606480830194909452928152611d92926147d29290600090819061477c608486611d62565b60018060a01b03169260405194614794604087611d62565b602086527f5361666545524332303a206c6f772d6c6576656c2063616c6c206661696c65646020870152519082855af16147cc6124ee565b91614874565b80519081159182156147e6575b5050614815565b6147f99250602080918301019101614800565b38806147df565b908160209103126102895751611e908161061c565b1561481c57565b60405162461bcd60e51b815260206004820152602a60248201527f5361666545524332303a204552433230206f7065726174696f6e20646964206e6044820152691bdd081cdd58d8d9595960b21b6064820152608490fd5b919290156148d65750815115614888575090565b3b156148915790565b60405162461bcd60e51b815260206004820152601d60248201527f416464726573733a2063616c6c20746f206e6f6e2d636f6e74726163740000006044820152606490fd5b8251909150156148e95750805190602001fd5b60405162461bcd60e51b81526020600482015290819061357890602483019061373056fea264697066735822122072914477d51f7fa680f9671732a5d2bde8f0c3523df20addd39cd262a4ad115b64736f6c634300081c0033",
  "linkReferences": {},
  "deployedLinkReferences": {}
}