{
  "_format": "hh-sol-artifact-1",
  "contractName": "LiquidityPoolV1",
  "sourceName": "contracts/hedera/LiquidityPoolV1.sol",
  "abi": [
    {
      "inputs": [
        {
          "internalType": "address",
          "name": "underlyingToken_",
          "type": "address"
        },
        {
          "internalType": "address",
          "name": "owner_",
          "type": "address"
        }
      ],
      "stateMutability": "nonpayable",
      "type": "constructor"
    },
    {
      "inputs": [
        {
          "internalType": "int64",
          "name": "code",
          "type": "int64"
        }
      ],
      "name": "HederaTokenError",
      "type": "error"
    },
    {
      "inputs": [],
      "name": "InsufficientLiquidity",
      "type": "error"
    },
    {
      "inputs": [],
      "name": "ZeroAmount",
      "type": "error"
    },
    {
      "anonymous": false,
      "inputs": [
        {
          "indexed": false,
          "internalType": "bool",
          "name": "",
          "type": "bool"
        },
        {
          "indexed": false,
          "internalType": "bytes",
          "name": "",
          "type": "bytes"
        }
      ],
      "name": "CallResponseEvent",
      "type": "event"
    },
    {
      "anonymous": false,
      "inputs": [
        {
          "indexed": true,
          "internalType": "address",
          "name": "user",
          "type": "address"
        },
        {
          "indexed": false,
          "internalType": "uint256",
          "name": "amount",
          "type": "uint256"
        }
      ],
      "name": "ClaimRewards",
      "type": "event"
    },
    {
      "anonymous": false,
      "inputs": [
        {
          "indexed": true,
          "internalType": "address",
          "name": "user",
          "type": "address"
        },
        {
          "indexed": false,
          "internalType": "uint256",
          "name": "amountIn",
          "type": "uint256"
        },
        {
          "indexed": false,
          "internalType": "uint256",
          "name": "lpMinted",
          "type": "uint256"
        }
      ],
      "name": "Deposit",
      "type": "event"
    },
    {
      "anonymous": false,
      "inputs": [
        {
          "indexed": true,
          "internalType": "address",
          "name": "gateway",
          "type": "address"
        }
      ],
      "name": "DepositGatewayUpdated",
      "type": "event"
    },
    {
      "anonymous": false,
      "inputs": [
        {
          "indexed": true,
          "internalType": "address",
          "name": "token",
          "type": "address"
        }
      ],
      "name": "LpTokenCreated",
      "type": "event"
    },
    {
      "anonymous": false,
      "inputs": [
        {
          "indexed": false,
          "internalType": "uint256",
          "name": "newRate",
          "type": "uint256"
        }
      ],
      "name": "RewardRateUpdated",
      "type": "event"
    },
    {
      "anonymous": false,
      "inputs": [
        {
          "indexed": true,
          "internalType": "address",
          "name": "token",
          "type": "address"
        }
      ],
      "name": "RewardTokenCreated",
      "type": "event"
    },
    {
      "anonymous": false,
      "inputs": [
        {
          "indexed": true,
          "internalType": "address",
          "name": "user",
          "type": "address"
        },
        {
          "indexed": false,
          "internalType": "uint256",
          "name": "amountOut",
          "type": "uint256"
        },
        {
          "indexed": false,
          "internalType": "uint256",
          "name": "lpBurned",
          "type": "uint256"
        }
      ],
      "name": "Withdraw",
      "type": "event"
    },
    {
      "inputs": [
        {
          "internalType": "address",
          "name": "",
          "type": "address"
        }
      ],
      "name": "accruedRewards",
      "outputs": [
        {
          "internalType": "uint256",
          "name": "",
          "type": "uint256"
        }
      ],
      "stateMutability": "view",
      "type": "function"
    },
    {
      "inputs": [],
      "name": "claimRewards",
      "outputs": [],
      "stateMutability": "nonpayable",
      "type": "function"
    },
    {
      "inputs": [
        {
          "internalType": "string",
          "name": "name",
          "type": "string"
        },
        {
          "internalType": "string",
          "name": "symbol",
          "type": "string"
        },
        {
          "internalType": "uint8",
          "name": "decimals",
          "type": "uint8"
        }
      ],
      "name": "createLpToken",
      "outputs": [],
      "stateMutability": "payable",
      "type": "function"
    },
    {
      "inputs": [
        {
          "internalType": "string",
          "name": "name",
          "type": "string"
        },
        {
          "internalType": "string",
          "name": "symbol",
          "type": "string"
        },
        {
          "internalType": "uint8",
          "name": "decimals",
          "type": "uint8"
        }
      ],
      "name": "createRewardToken",
      "outputs": [],
      "stateMutability": "payable",
      "type": "function"
    },
    {
      "inputs": [
        {
          "internalType": "uint256",
          "name": "amount",
          "type": "uint256"
        }
      ],
      "name": "deposit",
      "outputs": [],
      "stateMutability": "nonpayable",
      "type": "function"
    },
    {
      "inputs": [
        {
          "internalType": "address",
          "name": "receiver",
          "type": "address"
        },
        {
          "internalType": "uint256",
          "name": "amount",
          "type": "uint256"
        }
      ],
      "name": "depositFor",
      "outputs": [],
      "stateMutability": "nonpayable",
      "type": "function"
    },
    {
      "inputs": [],
      "name": "depositGateway",
      "outputs": [
        {
          "internalType": "address",
          "name": "",
          "type": "address"
        }
      ],
      "stateMutability": "view",
      "type": "function"
    },
    {
      "inputs": [],
      "name": "getExchangeRate",
      "outputs": [
        {
          "internalType": "uint256",
          "name": "",
          "type": "uint256"
        }
      ],
      "stateMutability": "view",
      "type": "function"
    },
    {
      "inputs": [],
      "name": "initialized",
      "outputs": [
        {
          "internalType": "bool",
          "name": "",
          "type": "bool"
        }
      ],
      "stateMutability": "view",
      "type": "function"
    },
    {
      "inputs": [],
      "name": "lastRewardUpdateTime",
      "outputs": [
        {
          "internalType": "uint64",
          "name": "",
          "type": "uint64"
        }
      ],
      "stateMutability": "view",
      "type": "function"
    },
    {
      "inputs": [
        {
          "internalType": "address",
          "name": "",
          "type": "address"
        }
      ],
      "name": "lpBalances",
      "outputs": [
        {
          "internalType": "uint256",
          "name": "",
          "type": "uint256"
        }
      ],
      "stateMutability": "view",
      "type": "function"
    },
    {
      "inputs": [],
      "name": "lpToken",
      "outputs": [
        {
          "internalType": "address",
          "name": "",
          "type": "address"
        }
      ],
      "stateMutability": "view",
      "type": "function"
    },
    {
      "inputs": [],
      "name": "owner",
      "outputs": [
        {
          "internalType": "address",
          "name": "",
          "type": "address"
        }
      ],
      "stateMutability": "view",
      "type": "function"
    },
    {
      "inputs": [
        {
          "internalType": "address",
          "name": "user",
          "type": "address"
        }
      ],
      "name": "pendingRewards",
      "outputs": [
        {
          "internalType": "uint256",
          "name": "",
          "type": "uint256"
        }
      ],
      "stateMutability": "view",
      "type": "function"
    },
    {
      "inputs": [
        {
          "internalType": "address",
          "name": "token",
          "type": "address"
        },
        {
          "internalType": "bytes",
          "name": "encodedFunctionSelector",
          "type": "bytes"
        }
      ],
      "name": "redirectForToken",
      "outputs": [
        {
          "internalType": "int256",
          "name": "responseCode",
          "type": "int256"
        },
        {
          "internalType": "bytes",
          "name": "response",
          "type": "bytes"
        }
      ],
      "stateMutability": "nonpayable",
      "type": "function"
    },
    {
      "inputs": [],
      "name": "rewardPerShare",
      "outputs": [
        {
          "internalType": "uint256",
          "name": "",
          "type": "uint256"
        }
      ],
      "stateMutability": "view",
      "type": "function"
    },
    {
      "inputs": [],
      "name": "rewardRatePerSecond",
      "outputs": [
        {
          "internalType": "uint256",
          "name": "",
          "type": "uint256"
        }
      ],
      "stateMutability": "view",
      "type": "function"
    },
    {
      "inputs": [],
      "name": "rewardToken",
      "outputs": [
        {
          "internalType": "address",
          "name": "",
          "type": "address"
        }
      ],
      "stateMutability": "view",
      "type": "function"
    },
    {
      "inputs": [],
      "name": "rewardsInitialized",
      "outputs": [
        {
          "internalType": "bool",
          "name": "",
          "type": "bool"
        }
      ],
      "stateMutability": "view",
      "type": "function"
    },
    {
      "inputs": [
        {
          "internalType": "address",
          "name": "gateway",
          "type": "address"
        }
      ],
      "name": "setDepositGateway",
      "outputs": [],
      "stateMutability": "nonpayable",
      "type": "function"
    },
    {
      "inputs": [
        {
          "internalType": "uint256",
          "name": "newRatePerSecond",
          "type": "uint256"
        }
      ],
      "name": "setRewardRate",
      "outputs": [],
      "stateMutability": "nonpayable",
      "type": "function"
    },
    {
      "inputs": [],
      "name": "totalLpShares",
      "outputs": [
        {
          "internalType": "uint256",
          "name": "",
          "type": "uint256"
        }
      ],
      "stateMutability": "view",
      "type": "function"
    },
    {
      "inputs": [],
      "name": "totalUnderlying",
      "outputs": [
        {
          "internalType": "uint256",
          "name": "",
          "type": "uint256"
        }
      ],
      "stateMutability": "view",
      "type": "function"
    },
    {
      "inputs": [
        {
          "internalType": "address",
          "name": "token",
          "type": "address"
        },
        {
          "internalType": "address",
          "name": "from",
          "type": "address"
        },
        {
          "internalType": "address",
          "name": "to",
          "type": "address"
        },
        {
          "internalType": "uint256",
          "name": "amount",
          "type": "uint256"
        }
      ],
      "name": "transferFrom",
      "outputs": [
        {
          "internalType": "int64",
          "name": "responseCode",
          "type": "int64"
        }
      ],
      "stateMutability": "nonpayable",
      "type": "function"
    },
    {
      "inputs": [
        {
          "internalType": "address",
          "name": "token",
          "type": "address"
        },
        {
          "internalType": "address",
          "name": "from",
          "type": "address"
        },
        {
          "internalType": "address",
          "name": "to",
          "type": "address"
        },
        {
          "internalType": "uint256",
          "name": "serialNumber",
          "type": "uint256"
        }
      ],
      "name": "transferFromNFT",
      "outputs": [
        {
          "internalType": "int64",
          "name": "responseCode",
          "type": "int64"
        }
      ],
      "stateMutability": "nonpayable",
      "type": "function"
    },
    {
      "inputs": [],
      "name": "underlyingToken",
      "outputs": [
        {
          "internalType": "address",
          "name": "",
          "type": "address"
        }
      ],
      "stateMutability": "view",
      "type": "function"
    },
    {
      "inputs": [
        {
          "internalType": "address",
          "name": "",
          "type": "address"
        }
      ],
      "name": "userRewardDebt",
      "outputs": [
        {
          "internalType": "uint256",
          "name": "",
          "type": "uint256"
        }
      ],
      "stateMutability": "view",
      "type": "function"
    },
    {
      "inputs": [
        {
          "internalType": "uint256",
          "name": "lpShares",
          "type": "uint256"
        }
      ],
      "name": "withdraw",
      "outputs": [],
      "stateMutability": "nonpayable",
      "type": "function"
    }
  ],
  "bytecode": "0x60a03461023a57601f61265a38819003918201601f19168301916001600160401b0383118484101761023f57808492604094855283398101031261023a57610052602061004b83610255565b9201610255565b600080546001600160a01b0319168155600160208181527fa6eef7e35abe7026729641147f7915573c7e97b47efa546f5f6e3230263bcb499190915560027fcc69885fda6bcc1a4ace058b4a62bf5e179ea78fd58a1ccd71c22cc9b688792f5560047fd9d16d34ffb15ba3a3d852f0d403e2ce1d691fb54de27ac87cd2f993f3ec330f5560087f7dfe757ecd65cbd7922a9c0161e935dd7fdbcc0e999689c7d31633896b1fc60b5560107fedc95719e9a3b28dd8e80877cb5880a9be7de1a13fc8b05e7999683b6b567643557fe2689cd4a84e23ad2f564004f1c9013e9589d260bde6380aba3ca7e09e4df40c556006905260407f8f331abe73332f95a25873e8b430885974c0409691f89d643119a11623a7924a556001600160a01b03821615610203576001600160a01b031680156101d157600580546001600160a01b0319169190911790556080526040516123f0908161026a823960805181818161049f015281816106520152818161103a015281816114b801526116040152f35b60405162461bcd60e51b815260206004820152600a6024820152694f574e45525f5a45524f60b01b6044820152606490fd5b60405162461bcd60e51b815260206004820152600f60248201526e554e4445524c59494e475f5a45524f60881b6044820152606490fd5b600080fd5b634e487b7160e01b600052604160045260246000fd5b51906001600160a01b038216820361023a5756fe6080604052600436101561001257600080fd5b60003560e01c80630a7e51cd146117465780630b65092d1461170c5780630fd4f78d146116ee578063128fced1146116b4578063158ef93e1461168e57806315dacbea146116335780632495a599146115ee5780632bd1755a146115c75780632e1a7d4d146112c25780632f4f21e214610fb257806331d7a26214610f8f5780633695c57014610f66578063372500ab14610e48578063446a2ec814610e2a5780634bf6f9e714610df05780635d773b2c14610dd25780635fcbd28514610da9578063618dc65e14610c845780636bd8f49314610c5e5780638c43dccb146108e15780638da5cb5b146108b85780639b23d3d91461080a5780639e447fc61461075d578063b6b55f25146105e4578063bdde05a9146101bf578063c70920bc146101a1578063e6aa216c1461017e5763f7c618c11461015057600080fd5b34610179576000366003190112610179576003546040516001600160a01b039091168152602090f35b600080fd5b34610179576000366003190112610179576020610199611d8f565b604051908152f35b34610179576000366003190112610179576020600654604051908152f35b6101c836611967565b906101e260018060a0979695971b036005541633146119c5565b6002546001600160a01b03166105b3576101fd341515611c6c565b610285610208611d1b565b956102123061206a565b61021b88611d5c565b5261022587611d5c565b5061022f306120cf565b61023888611d7f565b5261024287611d7f565b50604051926102508461181e565b6000845230602085015261027c6040850197627864508952604051976102758961184f565b36916118c2565b865236916118c2565b9160208401928352604084019530875260409586516102a48882611886565b60088152672628102a37b5b2b760c11b602082015260608701908152608087019860008a5260a08801916000835260c08901936000855260e08a019586526101008a01978089525160070b15806105a7575b61059b575b508951976020890199630fb65bf360e01b8b5260248a01606090525160848a0161016090526101e48a0161032e916118f9565b90518982036083190160a48b015261034691906118f9565b91516001600160a01b031660c4890152518782036083190160e489015261036d91906118f9565b985115156101048701525160070b610124860152511515610144850152519160831984880301610164850152825180885260208801908060051b890160200194602001916000905b82821061050e57896000808b8b610413818d60ff8e898f51805160070b61018487015260018060a01b036020820151166101a4870152015160070b6101c48501528760448501521660030b606483015203601f198101835282611886565b5190346101675af1906104246119fd565b91156104ff5780828051810103126101795761044260208301611a2d565b9101516001600160a01b0381169190829003610179576104689060030b5b60030b61210c565b600280546001600160a01b0319166001600160a01b039290921691821790556005805460ff60a01b1916600160a01b1790556104c37f000000000000000000000000000000000000000000000000000000000000000061212e565b6002546104d8906001600160a01b031661212e565b7ffd3ca1bde5b85c100e2c10b48f33e5ed084b3986b32e24e02bffcb52aa817436600080a2005b50506015610468600091610460565b909192956020808b60019360c08f610567858e61057d93601f19908703018b52518051865201519480878601528551151581860152888060a01b038787015116606086015285015160a0608086015260e08501906118f9565b6060850151848203603f190160a08601526118f9565b926080878060a01b03910151169101529801920192019092916103b5565b6276a70090528b6102fb565b50805160070b156102f6565b60405162461bcd60e51b81526020600482015260096024820152686c702065786973747360b81b6044820152606490fd5b346101795760203660031901126101795760043561060960ff60055460a01c16611a3b565b801561074c57610617611dd3565b61062033611e8f565b6040516323b872dd60e01b81523360048201523060248201526044810182905260208160648160006001600160a01b037f0000000000000000000000000000000000000000000000000000000000000000165af1801561074057610713575b5061068981611f44565b610694811515611af4565b6106a082600654611ae7565b6006556106af81600754611ae7565b60075533600052600860205260406000206106cb828254611ae7565b90556106d78133611fac565b6106e033611ef5565b60405191825260208201527f90890809c654f11d6e72a28fa60149770a0d11ec6c92319d6ceb2bb0a4ea1a1560403392a2005b6107349060203d602011610739575b61072c8183611886565b810190611acf565b61067f565b503d610722565b6040513d6000823e3d90fd5b631f2a200560e01b60005260046000fd5b34610179576020366003190112610179576005546004359060ff9061078c336001600160a01b038316146119c5565b60a81c16156107ce5760207f41d466ebd06fb97e7786086ac8b69b7eb7da798592036251291d34e9791cde01916107c1611dd3565b80600b55604051908152a1005b60405162461bcd60e51b815260206004820152601460248201527372657761726420746f6b656e206d697373696e6760601b6044820152606490fd5b3461017957600080610873610865610821366117d0565b604051639b23d3d960e01b602082019081526001600160a01b03958616602483015293851660448201529390911660648401526084830152929091829060a4820190565b03601f198101835282611886565b5190826101675af16108836119fd565b90156108ae57602081805181010312610179576108a36020809201611a2d565b6040519060030b8152f35b50602060156108a3565b34610179576000366003190112610179576005546040516001600160a01b039091168152602090f35b6108ea36611967565b9061090460018060a0979695971b036005541633146119c5565b6003546001600160a01b0316610c295761091f341515611c6c565b61092a610208611d1b565b9160208401928352604084019530875260409586516109498882611886565b600c81526b2932bbb0b932102a37b5b2b760a11b602082015260608701908152608087019860008a5260a08801916000835260c08901936000855260e08a019586526101008a01978089525160070b1580610c1d575b610c11575b508951976020890199630fb65bf360e01b8b5260248a01606090525160848a0161016090526101e48a016109d7916118f9565b90518982036083190160a48b01526109ef91906118f9565b91516001600160a01b031660c4890152518782036083190160e4890152610a1691906118f9565b985115156101048701525160070b610124860152511515610144850152519160831984880301610164850152825180885260208801908060051b890160200194602001916000905b828210610b9a57896000808b8b610abc818d60ff8e898f51805160070b61018487015260018060a01b036020820151166101a4870152015160070b6101c48501528760448501521660030b606483015203601f198101835282611886565b5190346101675af190610acd6119fd565b9115610b8b57808280518101031261017957610aeb60208301611a2d565b9101516001600160a01b038116919082900361017957610b0d9060030b61210c565b600380546001600160a01b0319166001600160a01b039290921691821790556005805460ff60a81b1916600160a81b179055600a805467ffffffffffffffff1916426001600160401b0316179055610b648161212e565b7f6ffb479afb6734584774a13c3e0872d2f694417ff14441fb1343d9ddf4784ec7600080a2005b50506015610b0d600091610460565b909192956020808b60019360c08f610567858e610bf393601f19908703018b52518051865201519480878601528551151581860152888060a01b038787015116606086015285015160a0608086015260e08501906118f9565b926080878060a01b0391015116910152980192019201909291610a5e565b6276a70090528b6109a4565b50805160070b1561099f565b60405162461bcd60e51b815260206004820152600d60248201526c7265776172642065786973747360981b6044820152606490fd5b3461017957600036600319011261017957602060ff60055460a81c166040519015158152f35b3461017957604036600319011261017957610c9d6117ba565b6024356001600160401b038111610179573660238201121561017957600091610865610d0f610cd7859436906024816004013591016118c2565b604080516330c6e32f60e11b602082019081526001600160a01b039096166024820152604481019190915292839160648301906118f9565b5190826101675af1610d1f6119fd565b907f4af4780e06fe8cb9df64b0794fa6f01399af979175bb988e35e0e57e594567bc60405182151581526040602082015280610d5e60408201866118f9565b0390a160009015610d90575060165b610d8c60405192839260030b83526040602084015260408301906118f9565b0390f35b6040519150610da0602083611886565b81526015610d6d565b34610179576000366003190112610179576002546040516001600160a01b039091168152602090f35b34610179576000366003190112610179576020600b54604051908152f35b34610179576020366003190112610179576001600160a01b03610e116117ba565b16600052600c6020526020604060002054604051908152f35b34610179576000366003190112610179576020600954604051908152f35b3461017957600036600319011261017957610e6a60ff60055460a81c16611c33565b610e72611dd3565b610e7b33611e8f565b33600052600d602052604060002054610e95811515611c33565b33600052600d60205260006040812055610ed7610ed0610eb4836121d1565b610ebc611f78565b6003549091906001600160a01b031661222c565b505061210c565b60035460405163a9059cbb60e01b81523360048201526024810183905290602090829060449082906000906001600160a01b03165af1801561074057610f47575b506040519081527f1f89f96333d3133000ee447473151fa9606543368f02271c9d95ae14f13bcc6760203392a2005b610f5f9060203d6020116107395761072c8183611886565b5081610f18565b34610179576000366003190112610179576004546040516001600160a01b039091168152602090f35b34610179576020366003190112610179576020610199610fad6117ba565b611b2a565b3461017957604036600319011261017957610fcb6117ba565b602435610fdf60ff60055460a01c16611a3b565b6004546001600160a01b0316330361128f576001600160a01b03821691821561125d57811561074c57611010611dd3565b61101981611e8f565b61102582600654611ae7565b6040516370a0823160e01b81523060048201527f00000000000000000000000000000000000000000000000000000000000000006001600160a01b0316602082602481845afa91821561074057600092611226575b50828210611115575b857f90890809c654f11d6e72a28fa60149770a0d11ec6c92319d6ceb2bb0a4ea1a15604087876111086110b583611f44565b916110c1831515611af4565b6110cd84600654611ae7565b6006556110dc83600754611ae7565b600755866000526008602052846000206110f7848254611ae7565b90556111038382611fac565b611ef5565b82519182526020820152a2005b6040516323b872dd60e01b8152336004820152306024820152604481018690526020816064816000865af19081611209575b506111a0575b501061115b57838080611083565b60405162461bcd60e51b815260206004820152601760248201527f676174657761792066756e64696e67206d697373696e670000000000000000006044820152606490fd5b6040516370a0823160e01b81523060048201529150602090829060249082905afa908115610740576000916111d7575b508561114d565b90506020813d602011611201575b816111f260209383611886565b810103126101795751856111d0565b3d91506111e5565b6112219060203d6020116107395761072c8183611886565b611147565b90916020823d602011611255575b8161124160209383611886565b81010312611252575051908661107a565b80fd5b3d9150611234565b60405162461bcd60e51b815260206004820152600a602482015269072656365697665723d360b41b6044820152606490fd5b60405162461bcd60e51b815260206004820152600b60248201526a6e6f74206761746577617960a81b6044820152606490fd5b34610179576020366003190112610179576004356112e760ff60055460a01c16611a3b565b801561074c5760075480821161157a57336000526008602052816040600020541061158b576113219061131c60065484611a79565b611aa2565b90811561157a57611330611dd3565b61133933611e8f565b61134582600654611ac2565b60065561135481600754611ac2565b6007553360005260086020526040600020611370828254611ac2565b90556002546040516323b872dd60e01b81523360048201523060248201526044810183905290602090829060649082906000906001600160a01b03165af180156107405761155d575b506113c3816121d1565b6020906040516113d38382611886565b60008152600036813760018060a01b0360025416906040519184830193636b48868360e11b85526084840191602485015260070b60448401526060606484015281518091528460a4840192019060005b8682821061154657888a916000808a8a611446818c03601f198101835282611886565b5190826101675af16114566119fd565b901561153b576040818051810103126101795780611484604061147d8561148d9501611a2d565b920161221e565b5060030b61210c565b60405163a9059cbb60e01b815233600482015260248101849052818160448160006001600160a01b037f0000000000000000000000000000000000000000000000000000000000000000165af1801561074057611520575b506114ef33611ef5565b6040519283528201527ff279e6a1f5e320cca91135676d9cb6e44ca8a08c0b88342bcdb1144f6511b56860403392a2005b61153690823d84116107395761072c8183611886565b6114e5565b5061148d6015610460565b835160070b85529384019390920191600101611423565b6115759060203d6020116107395761072c8183611886565b6113b9565b63bb55fd2760e01b60005260046000fd5b60405162461bcd60e51b8152602060048201526014602482015273696e73756666696369656e742062616c616e636560601b6044820152606490fd5b346101795760003660031901126101795760206001600160401b03600a5416604051908152f35b34610179576000366003190112610179576040517f00000000000000000000000000000000000000000000000000000000000000006001600160a01b03168152602090f35b346101795760008061087361086561164a366117d0565b604051630aed65f560e11b602082019081526001600160a01b03958616602483015293851660448201529390911660648401526084830152929091829060a4820190565b3461017957600036600319011261017957602060ff60055460a01c166040519015158152f35b34610179576020366003190112610179576001600160a01b036116d56117ba565b16600052600d6020526020604060002054604051908152f35b34610179576000366003190112610179576020600754604051908152f35b34610179576020366003190112610179576001600160a01b0361172d6117ba565b1660005260086020526020604060002054604051908152f35b346101795760203660031901126101795761175f6117ba565b61177460018060a01b036005541633146119c5565b600480546001600160a01b0319166001600160a01b039290921691821790557f3104a4ea2721a387233169376027781ad57c1c0ef56ebf6f9d8adace383f948a600080a2005b600435906001600160a01b038216820361017957565b6080906003190112610179576004356001600160a01b038116810361017957906024356001600160a01b038116810361017957906044356001600160a01b0381168103610179579060643590565b606081019081106001600160401b0382111761183957604052565b634e487b7160e01b600052604160045260246000fd5b61012081019081106001600160401b0382111761183957604052565b604081019081106001600160401b0382111761183957604052565b90601f801991011681019081106001600160401b0382111761183957604052565b6001600160401b03811161183957601f01601f191660200190565b9291926118ce826118a7565b916118dc6040519384611886565b829481845281830111610179578281602093846000960137010152565b919082519283825260005b848110611925575050826000602080949584010152601f8019910116010190565b80602080928401015182828601015201611904565b9181601f84011215610179578235916001600160401b038311610179576020838186019501011161017957565b6060600319820112610179576004356001600160401b03811161017957816119919160040161193a565b92909291602435906001600160401b038211610179576119b39160040161193a565b909160443560ff811681036101795790565b156119cc57565b60405162461bcd60e51b81526020600482015260096024820152683737ba1037bbb732b960b91b6044820152606490fd5b3d15611a28573d90611a0e826118a7565b91611a1c6040519384611886565b82523d6000602084013e565b606090565b51908160030b820361017957565b15611a4257565b60405162461bcd60e51b815260206004820152600f60248201526e1b9bdd081a5b9a5d1a585b1a5e9959608a1b6044820152606490fd5b81810292918115918404141715611a8c57565b634e487b7160e01b600052601160045260246000fd5b8115611aac570490565b634e487b7160e01b600052601260045260246000fd5b91908203918211611a8c57565b90816020910312610179575180151581036101795790565b91908201809211611a8c57565b15611afb57565b60405162461bcd60e51b81526020600482015260076024820152664c505f5a45524f60c81b6044820152606490fd5b60ff60055460a81c1615611c2d57600954906001600160401b03600a541680421180611c22575b611bb8575b506001600160a01b0316600081815260086020526040902054611bb592611ba091670de0b6b3a764000091611b8a91611a79565b0482600052600c60205260406000205490611ac2565b90600052600d60205260406000205490611ae7565b90565b611bc5611bce9142611ac2565b600b5490611a79565b91670de0b6b3a7640000830292808404670de0b6b3a76400001490151715611a8c57670de0b6b3a7640000611b8a611c19611ba093611c13611bb59760075490611aa2565b90611ae7565b94505050611b56565b506007541515611b51565b50600090565b15611c3a57565b60405162461bcd60e51b815260206004820152600a6024820152696e6f207265776172647360b01b6044820152606490fd5b15611c7357565b60405162461bcd60e51b815260206004820152600c60248201526b199959481c995c5d5a5c995960a21b6044820152606490fd5b6001600160401b0381116118395760051b60200190565b6040519060a082018281106001600160401b03821117611839576040526000608083828152826020820152606060408201526060808201520152565b60405190611d078261186b565b81600081526020611d16611cbe565b910152565b60405160609190611d2c8382611886565b6002815291601f19018260005b828110611d4557505050565b602090611d50611cfa565b82828501015201611d39565b805115611d695760200190565b634e487b7160e01b600052603260045260246000fd5b805160011015611d695760400190565b6007548015611dc65760065490670de0b6b3a7640000820291808304670de0b6b3a76400001490151715611a8c57611bb591611aa2565b50670de0b6b3a764000090565b60ff60055460a81c1615611e8d57600a546001600160401b038116421115611e8a57600754908115611e6e5750600a5490611e1a611bc56001600160401b03841642611ac2565b670de0b6b3a7640000810290808204670de0b6b3a76400001490151715611a8c57611e5091611e4891611aa2565b600954611ae7565b60095567ffffffffffffffff1916426001600160401b031617600a55565b67ffffffffffffffff1916426001600160401b031617600a5550565b50565b565b60ff60055460a81c1615611e8a576001600160a01b0316600081815260086020526040902054600954611ecf91670de0b6b3a764000091611b8a91611a79565b9081611ed9575050565b600052600d602052611ef16040600020918254611ae7565b9055565b60ff60055460a81c1615611e8a576001600160a01b0316600081815260086020526040902054600954670de0b6b3a764000091611f329190611a79565b0490600052600c602052604060002055565b60075480158015611f6e575b611f6a57611f6190611bb592611a79565b60065490611aa2565b5090565b5060065415611f50565b60405190611f87602083611886565b600080835282815b828110611f9b57505050565b806060602080938501015201611f8f565b60009190611fba83926121d1565b90611fdc610ed0611fc9611f78565b60025485906001600160a01b031661222c565b60025460405163eca3691760e01b602082019081526001600160a01b03928316602483015230604483015292909116606482015260079290920b60848084019190915282529061202d60a482611886565b5190826101675af161203d6119fd565b901561205f57602081805181010312610179576104606020611e8d9201611a2d565b50611e8d6015610460565b612072611cfa565b50600460005260016020527fedc95719e9a3b28dd8e80877cb5880a9be7de1a13fc8b05e7999683b6b56764354906120a8611cbe565b6001600160a01b039091166020820152604051916120c58361186b565b8252602082015290565b6120d7611cfa565b506000805260016020527fa6eef7e35abe7026729641147f7915573c7e97b47efa546f5f6e3230263bcb4954906120a8611cbe565b601681036121175750565b636f22e52360e01b60005260070b60045260246000fd5b60008091604051602081019163248a35ef60e11b835230602483015260018060a01b0316604482015260448152612166606482611886565b5190826101675af16121766119fd565b90156121c9576020818051810103126101795760206121959101611a2d565b60030b6016811415806121be575b6121aa5750565b636f22e52360e01b60005260045260246000fd5b5060c28114156121a3565b506015612195565b677fffffffffffffff81116121e65760070b90565b60405162461bcd60e51b815260206004820152601060248201526f414d4f554e545f544f4f5f4c4152474560801b6044820152606490fd5b51908160070b820361017957565b929160405193602085019263707a02cd60e11b8452608486019160018060a01b0316602487015260070b604486015260606064860152815180915260a4850190602060a48260051b8801019301916000905b82821061238f575050505090836122a260009495859403601f198101835282611886565b5190826101675af16122b26119fd565b906000901561236e57508051810160608260208301920312610179576122da60208301611a2d565b6122e66040840161221e565b926060810151906001600160401b03821161017957019180603f8401121561017957602083015161231681611ca7565b936123246040519586611886565b8185526020808087019360051b8301010192831161017957604001905b8282106123565750505091905b909160030b92565b602080916123638461221e565b815201910190612341565b604051915061237e602083611886565b80825236813760159060009061234e565b909192936020806123ac60019360a3198c820301865288516118f9565b96019201920190929161227e56fea2646970667358221220391125313bca41486a1c086b21523ecb66fc8635b7f572bcd67a746a94acd9a664736f6c634300081c0033",
  "linkReferences": {},
  "deployedLinkReferences": {}
}