{
  "_format": "hh-sol-artifact-1",
  "contractName": "SimpleHtsToken",
  "sourceName": "contracts/hedera/SimpleHtsToken.sol",
  "abi": [
    {
      "anonymous": false,
      "inputs": [
        {
          "indexed": false,
          "internalType": "bool",
          "name": "",
          "type": "bool"
        },
        {
          "indexed": false,
          "internalType": "bytes",
          "name": "",
          "type": "bytes"
        }
      ],
      "name": "CallResponseEvent",
      "type": "event"
    },
    {
      "anonymous": false,
      "inputs": [
        {
          "indexed": false,
          "internalType": "address",
          "name": "tokenAddress",
          "type": "address"
        }
      ],
      "name": "CreatedToken",
      "type": "event"
    },
    {
      "inputs": [
        {
          "internalType": "int64",
          "name": "amount",
          "type": "int64"
        }
      ],
      "name": "burn",
      "outputs": [],
      "stateMutability": "nonpayable",
      "type": "function"
    },
    {
      "inputs": [],
      "name": "createToken",
      "outputs": [],
      "stateMutability": "payable",
      "type": "function"
    },
    {
      "inputs": [
        {
          "internalType": "int64",
          "name": "amount",
          "type": "int64"
        }
      ],
      "name": "mint",
      "outputs": [],
      "stateMutability": "nonpayable",
      "type": "function"
    },
    {
      "inputs": [
        {
          "internalType": "address",
          "name": "to",
          "type": "address"
        },
        {
          "internalType": "int64",
          "name": "amount",
          "type": "int64"
        }
      ],
      "name": "mintTo",
      "outputs": [],
      "stateMutability": "nonpayable",
      "type": "function"
    },
    {
      "inputs": [
        {
          "internalType": "address",
          "name": "token",
          "type": "address"
        },
        {
          "internalType": "bytes",
          "name": "encodedFunctionSelector",
          "type": "bytes"
        }
      ],
      "name": "redirectForToken",
      "outputs": [
        {
          "internalType": "int256",
          "name": "responseCode",
          "type": "int256"
        },
        {
          "internalType": "bytes",
          "name": "response",
          "type": "bytes"
        }
      ],
      "stateMutability": "nonpayable",
      "type": "function"
    },
    {
      "inputs": [],
      "name": "token",
      "outputs": [
        {
          "internalType": "address",
          "name": "",
          "type": "address"
        }
      ],
      "stateMutability": "view",
      "type": "function"
    },
    {
      "inputs": [
        {
          "internalType": "address",
          "name": "token",
          "type": "address"
        },
        {
          "internalType": "address",
          "name": "from",
          "type": "address"
        },
        {
          "internalType": "address",
          "name": "to",
          "type": "address"
        },
        {
          "internalType": "uint256",
          "name": "amount",
          "type": "uint256"
        }
      ],
      "name": "transferFrom",
      "outputs": [
        {
          "internalType": "int64",
          "name": "responseCode",
          "type": "int64"
        }
      ],
      "stateMutability": "nonpayable",
      "type": "function"
    },
    {
      "inputs": [
        {
          "internalType": "address",
          "name": "token",
          "type": "address"
        },
        {
          "internalType": "address",
          "name": "from",
          "type": "address"
        },
        {
          "internalType": "address",
          "name": "to",
          "type": "address"
        },
        {
          "internalType": "uint256",
          "name": "serialNumber",
          "type": "uint256"
        }
      ],
      "name": "transferFromNFT",
      "outputs": [
        {
          "internalType": "int64",
          "name": "responseCode",
          "type": "int64"
        }
      ],
      "stateMutability": "nonpayable",
      "type": "function"
    },
    {
      "stateMutability": "payable",
      "type": "receive"
    }
  ],
  "bytecode": "0x60806040523461012e57600080546001600160a01b0319168155600160208181527fa6eef7e35abe7026729641147f7915573c7e97b47efa546f5f6e3230263bcb499190915560027fcc69885fda6bcc1a4ace058b4a62bf5e179ea78fd58a1ccd71c22cc9b688792f5560047fd9d16d34ffb15ba3a3d852f0d403e2ce1d691fb54de27ac87cd2f993f3ec330f5560087f7dfe757ecd65cbd7922a9c0161e935dd7fdbcc0e999689c7d31633896b1fc60b5560107fedc95719e9a3b28dd8e80877cb5880a9be7de1a13fc8b05e7999683b6b567643557fe2689cd4a84e23ad2f564004f1c9013e9589d260bde6380aba3ca7e09e4df40c556006905260407f8f331abe73332f95a25873e8b430885974c0409691f89d643119a11623a7924a81905551610d9490816101348239f35b600080fdfe6080604052600436101561001b575b361561001957600080fd5b005b60003560e01c80630c82f0da146108c457806315dacbea146108695780635cd3a60814610766578063618dc65e146106155780639b23d3d9146105675780639cbf9e36146100e9578063fc0c546a146100c05763fec156ff0361000e57346100bb5760203660031901126100bb5760166100b26100966109ad565b61009e610abe565b6002549091906001600160a01b0316610bcf565b5050036100bb57005b600080fd5b346100bb5760003660031901126100bb576002546040516001600160a01b039091168152602090f35b60003660031901126100bb5760606040516101048282610a27565b60028152601f19820160005b8181106105505750506000610123610b6d565b5060048152600160205260408120549061013b610b30565b90503060208201526040519161015083610a0b565b8252602082015261016082610b8e565b5261016a81610b8e565b506000610175610b6d565b50808052600160205260408120549061018c610b30565b9050306020820152604051916101a183610a0b565b825260208201526101b182610bb1565b526101bb81610bb1565b506040519082820182811067ffffffffffffffff82111761053a57604052600082523060208301526040820192627a1200845260405192610120840184811067ffffffffffffffff82111761053a57604052604094855161021c8782610a27565b600781526626bcaa37b5b2b760c91b6020820152855285519361023f8786610a27565b60038552624d544b60e81b6020860152602086019485528686019130835287516102698982610a27565b601081526f29b4b6b8363290242a29902a37b5b2b760811b602082015285880190815260808801936001855260a089019166038d7ea4c68000835260c08a01936000855260e08b019586526101008b01978089525160070b158061052e575b610522575b50908a9695979493929187519960208b019b630fb65bf360e01b8d528760248d01525160848c0161016090526101e48c0161030791610a65565b90518b82036083190160a48d015261031f9190610a65565b91516001600160a01b031660c48b0152518982036083190160e48b01526103469190610a65565b965115156101048901525160070b610124880152511515610144870152519360831986820301610164870152845190818152602081018260051b820160200196602001936000925b84841061049257876000808d8d6103e7818f878f51805160070b61018485015260018060a01b036020820151166101a4850152015160070b6101c48301528560448301526006606483015203601f198101835282610a27565b5190346101675af16103f7610af2565b90156104865781818051810103126100bb578161041660208301610b22565b9101516001600160a01b03811691908290036100bb5760169060030b5b60030b036100bb57600280546001600160a01b0319166001600160a01b03909216918217905590519081527f7bb17726df1f3adee8aa00ba8e8bc5d6f182af3bbf77604639cb7f008dd3b4ed90602090a1005b50600060166015610433565b9193959660208091879a60c06105006104eb856001989a9c601f198b8703018d52518051865201519480878601528551151581860152888060a01b0387870151168b86015285015160a0608086015260e0850190610a65565b848a0151848203603f190160a0860152610a65565b926080878060a01b0391015116910152990194019401918a969593949161038e565b6276a70090528b6102cd565b50805160070b156102c8565b634e487b7160e01b600052604160045260246000fd5b60209061055b610b6d565b82828601015201610110565b346100bb576000806105d06105c261057e366109bd565b604051639b23d3d960e01b602082019081526001600160a01b03958616602483015293851660448201529390911660648401526084830152929091829060a4820190565b03601f198101835282610a27565b5190826101675af16105e0610af2565b901561060b576020818051810103126100bb576106006020809201610b22565b6040519060030b8152f35b5060206015610600565b346100bb5760403660031901126100bb5761062e610997565b6024359067ffffffffffffffff82116100bb57366023830112156100bb5781600401359061065b82610a49565b916106696040519384610a27565b80835236602482860101116100bb576106cc60009493856020846105c29560248499018386013783010152604080516330c6e32f60e11b602082019081526001600160a01b03909616602482015260448101919091529283916064830190610a65565b5190826101675af16106dc610af2565b907f4af4780e06fe8cb9df64b0794fa6f01399af979175bb988e35e0e57e594567bc6040518215158152604060208201528061071b6040820186610a65565b0390a16000901561074d575060165b61074960405192839260030b8352604060208401526040830190610a65565b0390f35b604051915061075d602083610a27565b8152601561072a565b346100bb5760203660031901126100bb5761077f6109ad565b60209060405161078f8382610a27565b60008152600036813760018060a01b0360025416906040519184830193636b48868360e11b85526084840191602485015260070b60448401526060606484015281518091528460a4840192019060005b868282106108525760008088886107ff818a03601f198101835282610a27565b5190826101675af161080f610af2565b9015610847576040818051810103126100bb5761083b60406108346016948401610b22565b9201610bc1565b505b60030b036100bb57005b50506016601561083d565b835160070b855293840193909201916001016107df565b346100bb576000806105d06105c2610880366109bd565b604051630aed65f560e11b602082019081526001600160a01b03958616602483015293851660448201529390911660648401526084830152929091829060a4820190565b346100bb5760403660031901126100bb576108dd610997565b602435908160070b918281036100bb576108fb60169161009e610abe565b5050036100bb576001600160a01b031630810361091457005b600091829160018060a01b03600254169160405191602083019363eca3691760e01b85526024840152306044840152606483015260848201526084815261095c60a482610a27565b5190826101675af161096c610af2565b901561098d576020818051810103126100bb5761083d602060169201610b22565b506016601561083d565b600435906001600160a01b03821682036100bb57565b600435908160070b82036100bb57565b60809060031901126100bb576004356001600160a01b03811681036100bb57906024356001600160a01b03811681036100bb57906044356001600160a01b03811681036100bb579060643590565b6040810190811067ffffffffffffffff82111761053a57604052565b90601f8019910116810190811067ffffffffffffffff82111761053a57604052565b67ffffffffffffffff811161053a57601f01601f191660200190565b919082519283825260005b848110610a91575050826000602080949584010152601f8019910116010190565b80602080928401015182828601015201610a70565b67ffffffffffffffff811161053a5760051b60200190565b60405190610acd602083610a27565b600080835282815b828110610ae157505050565b806060602080938501015201610ad5565b3d15610b1d573d90610b0382610a49565b91610b116040519384610a27565b82523d6000602084013e565b606090565b51908160030b82036100bb57565b6040519060a0820182811067ffffffffffffffff82111761053a576040526000608083828152826020820152606060408201526060808201520152565b60405190610b7a82610a0b565b81600081526020610b89610b30565b910152565b805115610b9b5760200190565b634e487b7160e01b600052603260045260246000fd5b805160011015610b9b5760400190565b51908160070b82036100bb57565b929160405193602085019263707a02cd60e11b8452608486019160018060a01b0316602487015260070b604486015260606064860152815180915260a4850190602060a48260051b8801019301916000905b828210610d3357505050509083610c4560009495859403601f198101835282610a27565b5190826101675af1610c55610af2565b9060009015610d12575080518101606082602083019203126100bb57610c7d60208301610b22565b610c8960408401610bc1565b9260608101519067ffffffffffffffff82116100bb57019180603f840112156100bb576020830151610cba81610aa6565b93610cc86040519586610a27565b8185526020808087019360051b830101019283116100bb57604001905b828210610cfa5750505091905b909160030b92565b60208091610d0784610bc1565b815201910190610ce5565b6040519150610d22602083610a27565b808252368137601590600090610cf2565b90919293602080610d5060019360a3198c82030186528851610a65565b960192019201909291610c2156fea26469706673582212207458bc76a99eb8c9a56d4f333e3dc4289ef08d5339265c638a94c229acf19f0364736f6c634300081c0033",
  "linkReferences": {},
  "deployedLinkReferences": {}
}