{
  "_format": "hh-sol-artifact-1",
  "contractName": "UsdHtsController",
  "sourceName": "contracts/hedera/UsdHtsController.sol",
  "abi": [
    {
      "inputs": [
        {
          "internalType": "address",
          "name": "owner_",
          "type": "address"
        }
      ],
      "stateMutability": "nonpayable",
      "type": "constructor"
    },
    {
      "inputs": [],
      "name": "AmountExceedsInt64",
      "type": "error"
    },
    {
      "inputs": [
        {
          "internalType": "int64",
          "name": "rc",
          "type": "int64"
        }
      ],
      "name": "AssociateFailed",
      "type": "error"
    },
    {
      "inputs": [
        {
          "internalType": "int64",
          "name": "rc",
          "type": "int64"
        }
      ],
      "name": "BurnFailed",
      "type": "error"
    },
    {
      "inputs": [],
      "name": "ControllerPaused",
      "type": "error"
    },
    {
      "inputs": [],
      "name": "InvalidAmount",
      "type": "error"
    },
    {
      "inputs": [],
      "name": "InvalidRecipient",
      "type": "error"
    },
    {
      "inputs": [],
      "name": "MintCapExceeded",
      "type": "error"
    },
    {
      "inputs": [
        {
          "internalType": "int64",
          "name": "rc",
          "type": "int64"
        }
      ],
      "name": "MintFailed",
      "type": "error"
    },
    {
      "inputs": [],
      "name": "TokenAlreadyInitialized",
      "type": "error"
    },
    {
      "inputs": [],
      "name": "TokenNotInitialized",
      "type": "error"
    },
    {
      "inputs": [
        {
          "internalType": "int64",
          "name": "rc",
          "type": "int64"
        }
      ],
      "name": "TransferFailed",
      "type": "error"
    },
    {
      "inputs": [],
      "name": "TreasuryAlreadyExists",
      "type": "error"
    },
    {
      "inputs": [],
      "name": "TreasuryNotFound",
      "type": "error"
    },
    {
      "anonymous": false,
      "inputs": [
        {
          "indexed": false,
          "internalType": "uint64",
          "name": "amount",
          "type": "uint64"
        }
      ],
      "name": "Burned",
      "type": "event"
    },
    {
      "anonymous": false,
      "inputs": [
        {
          "indexed": false,
          "internalType": "bool",
          "name": "",
          "type": "bool"
        },
        {
          "indexed": false,
          "internalType": "bytes",
          "name": "",
          "type": "bytes"
        }
      ],
      "name": "CallResponseEvent",
      "type": "event"
    },
    {
      "anonymous": false,
      "inputs": [
        {
          "indexed": false,
          "internalType": "uint256",
          "name": "newCap",
          "type": "uint256"
        }
      ],
      "name": "MintCapUpdated",
      "type": "event"
    },
    {
      "anonymous": false,
      "inputs": [
        {
          "indexed": true,
          "internalType": "address",
          "name": "to",
          "type": "address"
        },
        {
          "indexed": false,
          "internalType": "uint64",
          "name": "amount",
          "type": "uint64"
        }
      ],
      "name": "Minted",
      "type": "event"
    },
    {
      "anonymous": false,
      "inputs": [
        {
          "indexed": true,
          "internalType": "address",
          "name": "previousOwner",
          "type": "address"
        },
        {
          "indexed": true,
          "internalType": "address",
          "name": "newOwner",
          "type": "address"
        }
      ],
      "name": "OwnershipTransferred",
      "type": "event"
    },
    {
      "anonymous": false,
      "inputs": [
        {
          "indexed": true,
          "internalType": "address",
          "name": "account",
          "type": "address"
        }
      ],
      "name": "Paused",
      "type": "event"
    },
    {
      "anonymous": false,
      "inputs": [
        {
          "indexed": true,
          "internalType": "address",
          "name": "token",
          "type": "address"
        }
      ],
      "name": "TokenAssociated",
      "type": "event"
    },
    {
      "anonymous": false,
      "inputs": [
        {
          "indexed": true,
          "internalType": "address",
          "name": "token",
          "type": "address"
        },
        {
          "indexed": false,
          "internalType": "uint8",
          "name": "decimals",
          "type": "uint8"
        },
        {
          "indexed": false,
          "internalType": "string",
          "name": "name",
          "type": "string"
        },
        {
          "indexed": false,
          "internalType": "string",
          "name": "symbol",
          "type": "string"
        }
      ],
      "name": "TokenLinked",
      "type": "event"
    },
    {
      "anonymous": false,
      "inputs": [
        {
          "indexed": true,
          "internalType": "address",
          "name": "treasury",
          "type": "address"
        },
        {
          "indexed": false,
          "internalType": "uint256",
          "name": "initialAmount",
          "type": "uint256"
        }
      ],
      "name": "TreasuryAdded",
      "type": "event"
    },
    {
      "anonymous": false,
      "inputs": [
        {
          "indexed": true,
          "internalType": "address",
          "name": "treasury",
          "type": "address"
        }
      ],
      "name": "TreasuryRemoved",
      "type": "event"
    },
    {
      "anonymous": false,
      "inputs": [
        {
          "indexed": true,
          "internalType": "address",
          "name": "treasury",
          "type": "address"
        },
        {
          "indexed": false,
          "internalType": "uint256",
          "name": "newAmount",
          "type": "uint256"
        }
      ],
      "name": "TreasuryUpdated",
      "type": "event"
    },
    {
      "anonymous": false,
      "inputs": [
        {
          "indexed": true,
          "internalType": "address",
          "name": "account",
          "type": "address"
        }
      ],
      "name": "Unpaused",
      "type": "event"
    },
    {
      "inputs": [
        {
          "internalType": "address",
          "name": "treasury",
          "type": "address"
        },
        {
          "internalType": "uint256",
          "name": "initialAmount",
          "type": "uint256"
        }
      ],
      "name": "addTreasury",
      "outputs": [],
      "stateMutability": "nonpayable",
      "type": "function"
    },
    {
      "inputs": [],
      "name": "associateToken",
      "outputs": [],
      "stateMutability": "nonpayable",
      "type": "function"
    },
    {
      "inputs": [],
      "name": "getAllTreasuries",
      "outputs": [
        {
          "internalType": "address[]",
          "name": "addresses",
          "type": "address[]"
        },
        {
          "internalType": "uint256[]",
          "name": "amounts",
          "type": "uint256[]"
        }
      ],
      "stateMutability": "view",
      "type": "function"
    },
    {
      "inputs": [],
      "name": "getTotalTreasuryAmount",
      "outputs": [
        {
          "internalType": "uint256",
          "name": "total",
          "type": "uint256"
        }
      ],
      "stateMutability": "view",
      "type": "function"
    },
    {
      "inputs": [],
      "name": "mintCap",
      "outputs": [
        {
          "internalType": "uint256",
          "name": "",
          "type": "uint256"
        }
      ],
      "stateMutability": "view",
      "type": "function"
    },
    {
      "inputs": [],
      "name": "owner",
      "outputs": [
        {
          "internalType": "address",
          "name": "",
          "type": "address"
        }
      ],
      "stateMutability": "view",
      "type": "function"
    },
    {
      "inputs": [],
      "name": "pause",
      "outputs": [],
      "stateMutability": "nonpayable",
      "type": "function"
    },
    {
      "inputs": [],
      "name": "paused",
      "outputs": [
        {
          "internalType": "bool",
          "name": "",
          "type": "bool"
        }
      ],
      "stateMutability": "view",
      "type": "function"
    },
    {
      "inputs": [
        {
          "internalType": "address",
          "name": "from",
          "type": "address"
        },
        {
          "internalType": "uint64",
          "name": "amount",
          "type": "uint64"
        }
      ],
      "name": "pullFrom",
      "outputs": [],
      "stateMutability": "nonpayable",
      "type": "function"
    },
    {
      "inputs": [
        {
          "internalType": "address",
          "name": "token",
          "type": "address"
        },
        {
          "internalType": "bytes",
          "name": "encodedFunctionSelector",
          "type": "bytes"
        }
      ],
      "name": "redirectForToken",
      "outputs": [
        {
          "internalType": "int256",
          "name": "responseCode",
          "type": "int256"
        },
        {
          "internalType": "bytes",
          "name": "response",
          "type": "bytes"
        }
      ],
      "stateMutability": "nonpayable",
      "type": "function"
    },
    {
      "inputs": [
        {
          "internalType": "address",
          "name": "treasury",
          "type": "address"
        }
      ],
      "name": "removeTreasury",
      "outputs": [],
      "stateMutability": "nonpayable",
      "type": "function"
    },
    {
      "inputs": [],
      "name": "renounceOwnership",
      "outputs": [],
      "stateMutability": "nonpayable",
      "type": "function"
    },
    {
      "inputs": [
        {
          "internalType": "uint256",
          "name": "newCap",
          "type": "uint256"
        }
      ],
      "name": "setMintCap",
      "outputs": [],
      "stateMutability": "nonpayable",
      "type": "function"
    },
    {
      "inputs": [
        {
          "internalType": "address",
          "name": "tokenAddr",
          "type": "address"
        },
        {
          "internalType": "uint8",
          "name": "decimals_",
          "type": "uint8"
        }
      ],
      "name": "setUsdToken",
      "outputs": [],
      "stateMutability": "nonpayable",
      "type": "function"
    },
    {
      "inputs": [],
      "name": "tokenInitialized",
      "outputs": [
        {
          "internalType": "bool",
          "name": "",
          "type": "bool"
        }
      ],
      "stateMutability": "view",
      "type": "function"
    },
    {
      "inputs": [],
      "name": "totalBurned",
      "outputs": [
        {
          "internalType": "uint256",
          "name": "",
          "type": "uint256"
        }
      ],
      "stateMutability": "view",
      "type": "function"
    },
    {
      "inputs": [],
      "name": "totalMinted",
      "outputs": [
        {
          "internalType": "uint256",
          "name": "",
          "type": "uint256"
        }
      ],
      "stateMutability": "view",
      "type": "function"
    },
    {
      "inputs": [
        {
          "internalType": "address",
          "name": "token",
          "type": "address"
        },
        {
          "internalType": "address",
          "name": "from",
          "type": "address"
        },
        {
          "internalType": "address",
          "name": "to",
          "type": "address"
        },
        {
          "internalType": "uint256",
          "name": "amount",
          "type": "uint256"
        }
      ],
      "name": "transferFrom",
      "outputs": [
        {
          "internalType": "int64",
          "name": "responseCode",
          "type": "int64"
        }
      ],
      "stateMutability": "nonpayable",
      "type": "function"
    },
    {
      "inputs": [
        {
          "internalType": "address",
          "name": "token",
          "type": "address"
        },
        {
          "internalType": "address",
          "name": "from",
          "type": "address"
        },
        {
          "internalType": "address",
          "name": "to",
          "type": "address"
        },
        {
          "internalType": "uint256",
          "name": "serialNumber",
          "type": "uint256"
        }
      ],
      "name": "transferFromNFT",
      "outputs": [
        {
          "internalType": "int64",
          "name": "responseCode",
          "type": "int64"
        }
      ],
      "stateMutability": "nonpayable",
      "type": "function"
    },
    {
      "inputs": [
        {
          "internalType": "address",
          "name": "newOwner",
          "type": "address"
        }
      ],
      "name": "transferOwnership",
      "outputs": [],
      "stateMutability": "nonpayable",
      "type": "function"
    },
    {
      "inputs": [
        {
          "internalType": "address",
          "name": "to",
          "type": "address"
        },
        {
          "internalType": "uint64",
          "name": "amount",
          "type": "uint64"
        }
      ],
      "name": "transferTo",
      "outputs": [],
      "stateMutability": "nonpayable",
      "type": "function"
    },
    {
      "inputs": [
        {
          "internalType": "address",
          "name": "",
          "type": "address"
        }
      ],
      "name": "treasuries",
      "outputs": [
        {
          "internalType": "address",
          "name": "treasury",
          "type": "address"
        },
        {
          "internalType": "uint256",
          "name": "usdAmount",
          "type": "uint256"
        },
        {
          "internalType": "bool",
          "name": "active",
          "type": "bool"
        }
      ],
      "stateMutability": "view",
      "type": "function"
    },
    {
      "inputs": [],
      "name": "treasuryAccount",
      "outputs": [
        {
          "internalType": "address",
          "name": "",
          "type": "address"
        }
      ],
      "stateMutability": "view",
      "type": "function"
    },
    {
      "inputs": [
        {
          "internalType": "uint256",
          "name": "",
          "type": "uint256"
        }
      ],
      "name": "treasuryList",
      "outputs": [
        {
          "internalType": "address",
          "name": "",
          "type": "address"
        }
      ],
      "stateMutability": "view",
      "type": "function"
    },
    {
      "inputs": [],
      "name": "unpause",
      "outputs": [],
      "stateMutability": "nonpayable",
      "type": "function"
    },
    {
      "inputs": [
        {
          "internalType": "address",
          "name": "treasury",
          "type": "address"
        },
        {
          "internalType": "uint256",
          "name": "newAmount",
          "type": "uint256"
        }
      ],
      "name": "updateTreasuryAmount",
      "outputs": [],
      "stateMutability": "nonpayable",
      "type": "function"
    },
    {
      "inputs": [],
      "name": "usdDecimals",
      "outputs": [
        {
          "internalType": "uint8",
          "name": "",
          "type": "uint8"
        }
      ],
      "stateMutability": "view",
      "type": "function"
    },
    {
      "inputs": [],
      "name": "usdToken",
      "outputs": [
        {
          "internalType": "address",
          "name": "",
          "type": "address"
        }
      ],
      "stateMutability": "view",
      "type": "function"
    },
    {
      "inputs": [],
      "name": "usdTokenName",
      "outputs": [
        {
          "internalType": "string",
          "name": "",
          "type": "string"
        }
      ],
      "stateMutability": "view",
      "type": "function"
    },
    {
      "inputs": [],
      "name": "usdTokenSymbol",
      "outputs": [
        {
          "internalType": "string",
          "name": "",
          "type": "string"
        }
      ],
      "stateMutability": "view",
      "type": "function"
    },
    {
      "stateMutability": "payable",
      "type": "receive"
    }
  ],
  "bytecode": "0x60a03461009757601f611da738819003918201601f19168301916001600160401b0383118484101761009c5780849260209460405283398101031261009757516001600160a01b03811680820361009757610059336100b2565b30608052610088575b604051611cad90816100fa82396080518181816103cb0152818161055f01526115520152f35b610091906100b2565b38610062565b600080fd5b634e487b7160e01b600052604160045260246000fd5b600080546001600160a01b039283166001600160a01b03198216811783559216907f8be0079c531659141344cd1fd0a4f28419497f9722a3daafe3b4186f6b6457e09080a356fe608080604052600436101561001d575b50361561001b57600080fd5b005b60003560e01c9081630849b23414611766575080630f7469191461172457806315dacbea146116e95780632e5e7eae1461165357806330c7ed1c14611581578063339b2cff1461153c578063389e4f1d146114b25780633f4ba83a146114675780634070a0c91461141b578063579140f4146113f85780635c975abb146113d5578063618dc65e1461128457806366a4b6c014611260578063715018a61461120757806376c71ca1146111e95780638456cb591461119b578063857e613b14610ca85780638da5cb5b14610c7f5780639b23d3d914610bf7578063a2309ff814610bd9578063ae4a31b214610a64578063b35ee931146108f6578063b6910a20146106ed578063d5e2f5871461063a578063d89135cd1461061c578063e9f2635e146104ff578063ebdd7a6114610369578063ec904f1914610269578063f2fde38b146101a25763f897a22b14610174573861000f565b3461019d57600036600319011261019d576001546040516001600160a01b039091168152602090f35b600080fd5b3461019d57602036600319011261019d576101bb6117c1565b6101c3611a32565b6001600160a01b0316801561021557600080546001600160a01b03198116831782556001600160a01b0316907f8be0079c531659141344cd1fd0a4f28419497f9722a3daafe3b4186f6b6457e09080a3005b60405162461bcd60e51b815260206004820152602660248201527f4f776e61626c653a206e6577206f776e657220697320746865207a65726f206160448201526564647265737360d01b6064820152608490fd5b3461019d57600036600319011261019d57610282611a32565b60ff60045416156103585760015460009081906001600160a01b03166102a98115156119c1565b604051602081019163248a35ef60e11b83523060248301526044820152604481526102d5606482611890565b5190826101675af16102e5611978565b901561035057806020806102fe935183010191016119a8565b60030b6016810361033c576001546001600160a01b03167fbbbf805ef99ca7d0b7d2cc769719f2a281c9b3331a3642efa75a712e3094a166600080a2005b6327b26a7960e11b60005260045260246000fd5b5060156102fe565b63786adbb560e11b60005260046000fd5b3461019d5761037736611916565b61037f611a32565b6001600160a01b038216156104ee5760ff60045416156103585767ffffffffffffffff169081156104dd57677fffffffffffffff82116104cc57600154604051630aed65f560e11b81527f00000000000000000000000000000000000000000000000000000000000000009290916020918391829161040e91889188916001600160a01b03166004860161194d565b03816000305af19081156104c05760009161047d575b5060070b6016810361046957506040519182526001600160a01b0316907f16fdde78855c6225e73485aa9775219553a030585a2c20ea11b9ae17518338e690602090a2005b632deb4e5b60e01b60005260045260246000fd5b6020813d6020116104b8575b8161049660209383611890565b810103126104b45751908160070b82036104b1575083610424565b80fd5b5080fd5b3d9150610489565b6040513d6000823e3d90fd5b6301239dd160e31b60005260046000fd5b63162908e360e11b60005260046000fd5b634e46966960e11b60005260046000fd5b3461019d5767ffffffffffffffff7f16fdde78855c6225e73485aa9775219553a030585a2c20ea11b9ae17518338e6602061053936611916565b60015460405163eca3691760e01b8582019081526001600160a01b0392831660248301527f000000000000000000000000000000000000000000000000000000000000000083166044830152919093166064840181905295909116600781900b60848085019190915283529160009182916105b560a482611890565b5190826101675af16105c5611978565b9015610614578083806105dd935183010191016119a8565b6040519060030b81527fbc5a40708079a5342612541e509225ba6b6fd8db7c4317efa2df29ec650ce926833092a2604051908152a2005b5060156105dd565b3461019d57600036600319011261019d576020600754604051908152f35b3461019d57600036600319011261019d57600080600a54905b81811061066557602083604051908152f35b61066e816117d7565b60018060a01b0391549060031b1c16600052600960205260ff6002604060002001541661069e575b600101610653565b916106a8836117d7565b60018060a01b0391549060031b1c16600052600960205260016040600020015481018091116106d75791610696565b634e487b7160e01b600052601160045260246000fd5b3461019d57600036600319011261019d57600080600a54905b8181106108a9575061071782611a06565b906107256040519283611890565b82825261073183611a06565b6020830190601f190136823761075f61074985611a06565b946107576040519687611890565b808652611a06565b602085019290601f19013684376000805b8281106107fe575050506040519384936040850190604086525180915260608501929060005b8181106107dc5750505060209084830382860152519182815201919060005b8181106107c3575050500390f35b82518452859450602093840193909201916001016107b5565b82516001600160a01b0316855287965060209485019490920191600101610796565b61080c8197949596976117d7565b60018060a01b0391549060031b1c16600052600960205260ff60026040600020015416610841575b6001019594939295610770565b906108a1600191610851846117d7565b848060a01b0391549060031b1c16610869828b611a1e565b52610873846117d7565b848060a01b0391549060031b1c166000526009602052826040600020015461089b8288611a1e565b526119f7565b919050610834565b6108b2816117d7565b60018060a01b0391549060031b1c16600052600960205260ff600260406000200154166108e2575b600101610706565b916108ee6001916119f7565b9290506108da565b3461019d57602036600319011261019d5761090f6117c1565b610917611a32565b6001600160a01b031660008181526009602052604090206002015460ff1615610a53576000818152600960205260408120600201805460ff191690555b600a549081811015610a4c578261096a826117d7565b905460039190911b1c6001600160a01b03161461098b576001915001610954565b60001982019182116106d7576109be6109a66109e2936117d7565b905460039190911b1c6001600160a01b0316916117d7565b81546001600160a01b0393841660039290921b91821b9390911b1916919091179055565b600a548015610a3657600019016109f8816117d7565b81549060018060a01b039060031b1b19169055600a555b7f0820ed7a122a6fc9da8baebd1b26fd87a75060c4d45f69af14c3bfc5f697a4ae600080a2005b634e487b7160e01b600052603160045260246000fd5b5050610a0f565b63595c708560e11b60005260046000fd5b3461019d57604036600319011261019d57610a7d6117c1565b602435610a88611a32565b6001600160a01b038216918215610ba75782600052600960205260ff60026040600020015416610b96576040516060810181811067ffffffffffffffff821117610b80576040528381526002602082019184835260408101926001845286600052600960205260406000209160018060a01b039051166bffffffffffffffffffffffff60a01b835416178255516001820155019051151560ff80198354169116179055600a549168010000000000000000831015610b8057610b776020926109be8560017fbc5a40708079a5342612541e509225ba6b6fd8db7c4317efa2df29ec650ce9269701600a556117d7565b604051908152a2005b634e487b7160e01b600052604160045260246000fd5b63d8fbd75960e01b60005260046000fd5b60405162461bcd60e51b815260206004820152600a602482015269074726561737572793d360b41b6044820152606490fd5b3461019d57600036600319011261019d576020600654604051908152f35b3461019d57600080610c40610c32610c0e36611808565b6040959395949194519485936020850197639b23d3d960e01b89526024860161194d565b03601f198101835282611890565b5190826101675af1610c50611978565b9015610c7557610c6a8160208080945183010191016119a8565b6040519060030b8152f35b5060206015610c6a565b3461019d57600036600319011261019d576000546040516001600160a01b039091168152602090f35b3461019d57604036600319011261019d57610cc16117c1565b6024359060ff8216820361019d57610cd7611a32565b60ff6004541661118a576001600160a01b03811691610cf78315156119c1565b8260015491816bffffffffffffffffffffffff60a01b841617600155610d2260ff60a01b9185611a8a565b60a01b16916affffffffffffffffffffff60a81b161717600155610d4581611b6f565b80519067ffffffffffffffff8211610b8057610d62600254611856565b601f811161111d575b50602090601f83116001146110a557610da39392916000918361109a575b50508160011b916000199060031b1c191617600255611bf1565b90815167ffffffffffffffff8111610b8057610dc0600354611856565b601f811161102d575b50602092601f8211600114610fbd5792819293600092610fb2575b50508160011b916000199060031b1c1916176003555b600160ff19600454161760045560ff60015460a01c16604051908152606060208201526000600254610e2b81611856565b90816060850152600181169081600014610f915750600114610f4b575b508181036040830152600354600091610e6082611856565b8082529160018116908115610f095750600114610ea1575b847fb024dfcb59d3dbd3fcac3b2838dafc666bd20da9879bc831f7d6d65e86c7bad285850386a2005b60036000908152925090600080516020611c588339815191525b818410610eef57505001602001817fb024dfcb59d3dbd3fcac3b2838dafc666bd20da9879bc831f7d6d65e86c7bad2610e78565b600181602092959395548385870101520191019290610ebb565b8594506020929150927fb024dfcb59d3dbd3fcac3b2838dafc666bd20da9879bc831f7d6d65e86c7bad2959360ff191683830152151560051b01019192610e78565b60026000908152909150600080516020611c388339815191525b828210610f7a57508201608001905083610e48565b805482850160800152602090910190600101610f65565b60209350606092915060ff19166080850152151560051b8301010183610e48565b015190508380610de4565b601f198216936003600052600080516020611c588339815191529160005b8681106110155750836001959610610ffc575b505050811b01600355610dfa565b015160001960f88460031b161c19169055838080610fee565b91926020600181928685015181550194019201610fdb565b6003600052601f820160051c600080516020611c58833981519152019060208310611084575b601f0160051c600080516020611c5883398151915201905b8181106110785750610dc9565b6000815560010161106b565b600080516020611c588339815191529150611053565b015190508580610d89565b90601f198316916002600052600080516020611c388339815191529260005b8181106111055750916001939185610da3979694106110ec575b505050811b01600255611bf1565b015160001960f88460031b161c191690558580806110de565b929360206001819287860151815501950193016110c4565b6002600052601f830160051c600080516020611c38833981519152019060208410611174575b601f0160051c600080516020611c3883398151915201905b8181106111685750610d6b565b6000815560010161115b565b600080516020611c388339815191529150611143565b63185add2960e11b60005260046000fd5b3461019d57600036600319011261019d576111b4611a32565b600160ff196008541617600855337f62e78cea01bee320cd4e420270b5ea74000d11b0c9f74754ebdbfc544b05a258600080a2005b3461019d57600036600319011261019d576020600554604051908152f35b3461019d57600036600319011261019d57611220611a32565b600080546001600160a01b0319811682556001600160a01b03167f8be0079c531659141344cd1fd0a4f28419497f9722a3daafe3b4186f6b6457e08280a3005b3461019d57600036600319011261019d57602060ff60015460a01c16604051908152f35b3461019d57604036600319011261019d5761129d6117c1565b6024359067ffffffffffffffff821161019d573660238301121561019d578160040135906112ca826118fa565b916112d86040519384611890565b808352366024828601011161019d5761133b6000949385602084610c329560248499018386013783010152604080516330c6e32f60e11b602082019081526001600160a01b039096166024820152604481019190915292839160648301906118d5565b5190826101675af161134b611978565b907f4af4780e06fe8cb9df64b0794fa6f01399af979175bb988e35e0e57e594567bc6040518215158152604060208201528061138a60408201866118d5565b0390a1600090156113bc575060165b6113b860405192839260030b83526040602084015260408301906118d5565b0390f35b60405191506113cc602083611890565b81526015611399565b3461019d57600036600319011261019d57602060ff600854166040519015158152f35b3461019d57600036600319011261019d57602060ff600454166040519015158152f35b3461019d57602036600319011261019d577f153293d149447f30b86e9658d26f5d35f231999901bba9d33379b56572e56d74602060043561145a611a32565b80600555604051908152a1005b3461019d57600036600319011261019d57611480611a32565b60ff1960085416600855337f5db9ee0a495bf2e6ff9c91a7834c1ba4fdd244a5e8aa4e537bd38aeae4b073aa600080a2005b3461019d57604036600319011261019d576114cb6117c1565b602435906114d7611a32565b6001600160a01b031660008181526009602052604090206002015490919060ff1615610a535760207fe5dd9ed033d12f33a7a7736a002f6e92eccb6256e91c642d50260a367ec32c5e91836000526009825280600160406000200155604051908152a2005b3461019d57600036600319011261019d576040517f00000000000000000000000000000000000000000000000000000000000000006001600160a01b03168152602090f35b3461019d57600036600319011261019d57604051600254600090816115a582611856565b808552916001811690811561162c57506001146115e1575b6113b8846115cd81860382611890565b6040519182916020835260208301906118d5565b60028152600080516020611c38833981519152939250905b808210611612575090915081016020016115cd826115bd565b9192600181602092548385880101520191019092916115f9565b60ff191660208087019190915292151560051b850190920192506115cd91508390506115bd565b3461019d57600036600319011261019d576040516003546000908161167782611856565b808552916001811690811561162c575060011461169e576113b8846115cd81860382611890565b60038152600080516020611c58833981519152939250905b8082106116cf575090915081016020016115cd826115bd565b9192600181602092548385880101520191019092916116b6565b3461019d57600080610c40610c3261170036611808565b6040959395949194519485936020850197630aed65f560e11b89526024860161194d565b3461019d57602036600319011261019d57600435600a5481101561019d5761174d6020916117d7565b905460405160039290921b1c6001600160a01b03168152f35b3461019d57602036600319011261019d576060906001600160a01b0361178a6117c1565b166000526009602052604060002060018060a01b038154169060ff6002600183015492015416918352602083015215156040820152f35b600435906001600160a01b038216820361019d57565b600a548110156117f257600a60005260206000200190600090565b634e487b7160e01b600052603260045260246000fd5b608090600319011261019d576004356001600160a01b038116810361019d57906024356001600160a01b038116810361019d57906044356001600160a01b038116810361019d579060643590565b90600182811c92168015611886575b602083101461187057565b634e487b7160e01b600052602260045260246000fd5b91607f1691611865565b90601f8019910116810190811067ffffffffffffffff821117610b8057604052565b60005b8381106118c55750506000910152565b81810151838201526020016118b5565b906020916118ee815180928185528580860191016118b2565b601f01601f1916010190565b67ffffffffffffffff8111610b8057601f01601f191660200190565b604090600319011261019d576004356001600160a01b038116810361019d579060243567ffffffffffffffff8116810361019d5790565b6001600160a01b03918216815291811660208301529091166040820152606081019190915260800190565b3d156119a3573d90611989826118fa565b916119976040519384611890565b82523d6000602084013e565b606090565b9081602091031261019d57518060030b810361019d5790565b156119c857565b60405162461bcd60e51b81526020600482015260076024820152660746f6b656e3d360cc1b6044820152606490fd5b60001981146106d75760010190565b67ffffffffffffffff8111610b805760051b60200190565b80518210156117f25760209160051b010190565b6000546001600160a01b03163303611a4657565b606460405162461bcd60e51b815260206004820152602060248201527f4f776e61626c653a2063616c6c6572206973206e6f7420746865206f776e65726044820152fd5b803b15611b095760405163313ce56760e01b815290602090829060049082906001600160a01b03165afa8091600091611acd575b5090611ac8575090565b905090565b6020813d602011611b01575b81611ae660209383611890565b810103126104b457519060ff821682036104b1575038611abe565b3d9150611ad9565b5090565b60208183031261019d5780519067ffffffffffffffff821161019d570181601f8201121561019d578051611b40816118fa565b92611b4e6040519485611890565b8184526020828401011161019d57611b6c91602080850191016118b2565b90565b803b15611be2576040516306fdde0360e01b815290600090829060049082906001600160a01b03165afa60009181611bbd575b50611b6c5750604051611bb6602082611890565b6000815290565b611bdb9192503d806000833e611bd38183611890565b810190611b0d565b9038611ba2565b50604051611bb6602082611890565b803b15611be2576040516395d89b4160e01b815290600090829060049082906001600160a01b03165afa60009181611bbd5750611b6c5750604051611bb660208261189056fe405787fa12a823e0f2b7631cc41b3ba8828b3321ca811111fa75cd3aa3bb5acec2575a0e9e593c00f959f8c92f12db2869c3395a3b0502d05e2516446f71f85ba2646970667358221220805019824d40830278904066a2c73b632e817209441a9d064cdd4003ae87dc1564736f6c634300081c0033",
  "linkReferences": {},
  "deployedLinkReferences": {}
}